{
  "address": "0xDDF459FD489A62Afc69E18Cc8b2889a6A693e5ce",
  "abi": [
    {
      "inputs": [
        {
          "internalType": "string",
          "name": "_name",
          "type": "string"
        },
        {
          "internalType": "string",
          "name": "_symbol",
          "type": "string"
        },
        {
          "internalType": "string",
          "name": "_initBaseURI",
          "type": "string"
        }
      ],
      "stateMutability": "nonpayable",
      "type": "constructor"
    },
    {
      "anonymous": false,
      "inputs": [
        {
          "indexed": true,
          "internalType": "address",
          "name": "owner",
          "type": "address"
        },
        {
          "indexed": true,
          "internalType": "address",
          "name": "approved",
          "type": "address"
        },
        {
          "indexed": true,
          "internalType": "uint256",
          "name": "tokenId",
          "type": "uint256"
        }
      ],
      "name": "Approval",
      "type": "event"
    },
    {
      "anonymous": false,
      "inputs": [
        {
          "indexed": true,
          "internalType": "address",
          "name": "owner",
          "type": "address"
        },
        {
          "indexed": true,
          "internalType": "address",
          "name": "operator",
          "type": "address"
        },
        {
          "indexed": false,
          "internalType": "bool",
          "name": "approved",
          "type": "bool"
        }
      ],
      "name": "ApprovalForAll",
      "type": "event"
    },
    {
      "anonymous": false,
      "inputs": [
        {
          "indexed": true,
          "internalType": "address",
          "name": "previousOwner",
          "type": "address"
        },
        {
          "indexed": true,
          "internalType": "address",
          "name": "newOwner",
          "type": "address"
        }
      ],
      "name": "OwnershipTransferred",
      "type": "event"
    },
    {
      "anonymous": false,
      "inputs": [
        {
          "indexed": true,
          "internalType": "address",
          "name": "from",
          "type": "address"
        },
        {
          "indexed": true,
          "internalType": "address",
          "name": "to",
          "type": "address"
        },
        {
          "indexed": true,
          "internalType": "uint256",
          "name": "tokenId",
          "type": "uint256"
        }
      ],
      "name": "Transfer",
      "type": "event"
    },
    {
      "inputs": [],
      "name": "_name",
      "outputs": [
        {
          "internalType": "string",
          "name": "",
          "type": "string"
        }
      ],
      "stateMutability": "view",
      "type": "function"
    },
    {
      "inputs": [
        {
          "internalType": "uint256",
          "name": "",
          "type": "uint256"
        }
      ],
      "name": "_ownedTokens",
      "outputs": [
        {
          "internalType": "address",
          "name": "",
          "type": "address"
        }
      ],
      "stateMutability": "view",
      "type": "function"
    },
    {
      "inputs": [],
      "name": "_symbol",
      "outputs": [
        {
          "internalType": "string",
          "name": "",
          "type": "string"
        }
      ],
      "stateMutability": "view",
      "type": "function"
    },
    {
      "inputs": [
        {
          "internalType": "address",
          "name": "",
          "type": "address"
        }
      ],
      "name": "addressMintedBalance",
      "outputs": [
        {
          "internalType": "uint256",
          "name": "",
          "type": "uint256"
        }
      ],
      "stateMutability": "view",
      "type": "function"
    },
    {
      "inputs": [
        {
          "internalType": "address",
          "name": "to",
          "type": "address"
        },
        {
          "internalType": "uint256",
          "name": "tokenId",
          "type": "uint256"
        }
      ],
      "name": "approve",
      "outputs": [],
      "stateMutability": "nonpayable",
      "type": "function"
    },
    {
      "inputs": [
        {
          "internalType": "address",
          "name": "owner",
          "type": "address"
        }
      ],
      "name": "balanceOf",
      "outputs": [
        {
          "internalType": "uint256",
          "name": "",
          "type": "uint256"
        }
      ],
      "stateMutability": "view",
      "type": "function"
    },
    {
      "inputs": [],
      "name": "baseExtension",
      "outputs": [
        {
          "internalType": "string",
          "name": "",
          "type": "string"
        }
      ],
      "stateMutability": "view",
      "type": "function"
    },
    {
      "inputs": [],
      "name": "baseURI",
      "outputs": [
        {
          "internalType": "string",
          "name": "",
          "type": "string"
        }
      ],
      "stateMutability": "view",
      "type": "function"
    },
    {
      "inputs": [],
      "name": "cost",
      "outputs": [
        {
          "internalType": "uint256",
          "name": "",
          "type": "uint256"
        }
      ],
      "stateMutability": "view",
      "type": "function"
    },
    {
      "inputs": [
        {
          "internalType": "uint256",
          "name": "tokenId",
          "type": "uint256"
        }
      ],
      "name": "getApproved",
      "outputs": [
        {
          "internalType": "address",
          "name": "",
          "type": "address"
        }
      ],
      "stateMutability": "view",
      "type": "function"
    },
    {
      "inputs": [
        {
          "internalType": "uint256",
          "name": "tokenId",
          "type": "uint256"
        }
      ],
      "name": "getNFTUser",
      "outputs": [
        {
          "internalType": "address",
          "name": "",
          "type": "address"
        }
      ],
      "stateMutability": "view",
      "type": "function"
    },
    {
      "inputs": [],
      "name": "getRemainCollections",
      "outputs": [
        {
          "internalType": "uint256",
          "name": "",
          "type": "uint256"
        }
      ],
      "stateMutability": "view",
      "type": "function"
    },
    {
      "inputs": [
        {
          "internalType": "uint256",
          "name": "remainNFT",
          "type": "uint256"
        }
      ],
      "name": "getRemainCollections",
      "outputs": [],
      "stateMutability": "nonpayable",
      "type": "function"
    },
    {
      "inputs": [],
      "name": "getRemainNFTforUser",
      "outputs": [
        {
          "internalType": "uint256",
          "name": "",
          "type": "uint256"
        }
      ],
      "stateMutability": "view",
      "type": "function"
    },
    {
      "inputs": [
        {
          "internalType": "address",
          "name": "owner",
          "type": "address"
        },
        {
          "internalType": "address",
          "name": "operator",
          "type": "address"
        }
      ],
      "name": "isApprovedForAll",
      "outputs": [
        {
          "internalType": "bool",
          "name": "",
          "type": "bool"
        }
      ],
      "stateMutability": "view",
      "type": "function"
    },
    {
      "inputs": [],
      "name": "isPaused",
      "outputs": [
        {
          "internalType": "uint256",
          "name": "",
          "type": "uint256"
        }
      ],
      "stateMutability": "view",
      "type": "function"
    },
    {
      "inputs": [
        {
          "internalType": "address",
          "name": "_user",
          "type": "address"
        }
      ],
      "name": "isWhitelisted",
      "outputs": [
        {
          "internalType": "bool",
          "name": "",
          "type": "bool"
        }
      ],
      "stateMutability": "view",
      "type": "function"
    },
    {
      "inputs": [],
      "name": "maxMintAmount",
      "outputs": [
        {
          "internalType": "uint256",
          "name": "",
          "type": "uint256"
        }
      ],
      "stateMutability": "view",
      "type": "function"
    },
    {
      "inputs": [],
      "name": "maxSupply",
      "outputs": [
        {
          "internalType": "uint256",
          "name": "",
          "type": "uint256"
        }
      ],
      "stateMutability": "view",
      "type": "function"
    },
    {
      "inputs": [],
      "name": "metaDataFolder",
      "outputs": [
        {
          "internalType": "string",
          "name": "",
          "type": "string"
        }
      ],
      "stateMutability": "view",
      "type": "function"
    },
    {
      "inputs": [
        {
          "internalType": "address",
          "name": "_to",
          "type": "address"
        },
        {
          "internalType": "uint256",
          "name": "_mintAmount",
          "type": "uint256"
        }
      ],
      "name": "mint",
      "outputs": [],
      "stateMutability": "payable",
      "type": "function"
    },
    {
      "inputs": [],
      "name": "name",
      "outputs": [
        {
          "internalType": "string",
          "name": "",
          "type": "string"
        }
      ],
      "stateMutability": "view",
      "type": "function"
    },
    {
      "inputs": [],
      "name": "nftPerAddressLimit",
      "outputs": [
        {
          "internalType": "uint256",
          "name": "",
          "type": "uint256"
        }
      ],
      "stateMutability": "view",
      "type": "function"
    },
    {
      "inputs": [],
      "name": "notRevealedUri",
      "outputs": [
        {
          "internalType": "string",
          "name": "",
          "type": "string"
        }
      ],
      "stateMutability": "view",
      "type": "function"
    },
    {
      "inputs": [],
      "name": "onlyWhitelisted",
      "outputs": [
        {
          "internalType": "uint256",
          "name": "",
          "type": "uint256"
        }
      ],
      "stateMutability": "view",
      "type": "function"
    },
    {
      "inputs": [],
      "name": "owner",
      "outputs": [
        {
          "internalType": "address",
          "name": "",
          "type": "address"
        }
      ],
      "stateMutability": "view",
      "type": "function"
    },
    {
      "inputs": [
        {
          "internalType": "uint256",
          "name": "tokenId",
          "type": "uint256"
        }
      ],
      "name": "ownerOf",
      "outputs": [
        {
          "internalType": "address",
          "name": "",
          "type": "address"
        }
      ],
      "stateMutability": "view",
      "type": "function"
    },
    {
      "inputs": [
        {
          "internalType": "bool",
          "name": "_state",
          "type": "bool"
        }
      ],
      "name": "pause",
      "outputs": [],
      "stateMutability": "nonpayable",
      "type": "function"
    },
    {
      "inputs": [],
      "name": "paused",
      "outputs": [
        {
          "internalType": "uint256",
          "name": "",
          "type": "uint256"
        }
      ],
      "stateMutability": "view",
      "type": "function"
    },
    {
      "inputs": [],
      "name": "remainTokenAmount",
      "outputs": [
        {
          "internalType": "uint256",
          "name": "",
          "type": "uint256"
        }
      ],
      "stateMutability": "view",
      "type": "function"
    },
    {
      "inputs": [],
      "name": "renounceOwnership",
      "outputs": [],
      "stateMutability": "nonpayable",
      "type": "function"
    },
    {
      "inputs": [],
      "name": "reveal",
      "outputs": [],
      "stateMutability": "nonpayable",
      "type": "function"
    },
    {
      "inputs": [],
      "name": "revealed",
      "outputs": [
        {
          "internalType": "uint256",
          "name": "",
          "type": "uint256"
        }
      ],
      "stateMutability": "view",
      "type": "function"
    },
    {
      "inputs": [
        {
          "internalType": "address",
          "name": "from",
          "type": "address"
        },
        {
          "internalType": "address",
          "name": "to",
          "type": "address"
        },
        {
          "internalType": "uint256",
          "name": "tokenId",
          "type": "uint256"
        }
      ],
      "name": "safeTransferFrom",
      "outputs": [],
      "stateMutability": "nonpayable",
      "type": "function"
    },
    {
      "inputs": [
        {
          "internalType": "address",
          "name": "from",
          "type": "address"
        },
        {
          "internalType": "address",
          "name": "to",
          "type": "address"
        },
        {
          "internalType": "uint256",
          "name": "tokenId",
          "type": "uint256"
        },
        {
          "internalType": "bytes",
          "name": "_data",
          "type": "bytes"
        }
      ],
      "name": "safeTransferFrom",
      "outputs": [],
      "stateMutability": "nonpayable",
      "type": "function"
    },
    {
      "inputs": [
        {
          "internalType": "address",
          "name": "operator",
          "type": "address"
        },
        {
          "internalType": "bool",
          "name": "approved",
          "type": "bool"
        }
      ],
      "name": "setApprovalForAll",
      "outputs": [],
      "stateMutability": "nonpayable",
      "type": "function"
    },
    {
      "inputs": [
        {
          "internalType": "string",
          "name": "_newBaseExtension",
          "type": "string"
        }
      ],
      "name": "setBaseExtension",
      "outputs": [],
      "stateMutability": "nonpayable",
      "type": "function"
    },
    {
      "inputs": [
        {
          "internalType": "string",
          "name": "_newBaseURI",
          "type": "string"
        }
      ],
      "name": "setBaseURI",
      "outputs": [],
      "stateMutability": "nonpayable",
      "type": "function"
    },
    {
      "inputs": [
        {
          "internalType": "uint256",
          "name": "_newCost",
          "type": "uint256"
        }
      ],
      "name": "setCost",
      "outputs": [],
      "stateMutability": "nonpayable",
      "type": "function"
    },
    {
      "inputs": [
        {
          "internalType": "uint256",
          "name": "_limit",
          "type": "uint256"
        }
      ],
      "name": "setNftPerAddressLimit",
      "outputs": [],
      "stateMutability": "nonpayable",
      "type": "function"
    },
    {
      "inputs": [
        {
          "internalType": "string",
          "name": "_notRevealedURI",
          "type": "string"
        }
      ],
      "name": "setNotRevealedURI",
      "outputs": [],
      "stateMutability": "nonpayable",
      "type": "function"
    },
    {
      "inputs": [
        {
          "internalType": "uint256",
          "name": "_state",
          "type": "uint256"
        }
      ],
      "name": "setOnlyWhitelisted",
      "outputs": [],
      "stateMutability": "nonpayable",
      "type": "function"
    },
    {
      "inputs": [
        {
          "internalType": "uint256",
          "name": "_newmaxMintAmount",
          "type": "uint256"
        }
      ],
      "name": "setmaxMintAmount",
      "outputs": [],
      "stateMutability": "nonpayable",
      "type": "function"
    },
    {
      "inputs": [
        {
          "internalType": "bytes4",
          "name": "interfaceId",
          "type": "bytes4"
        }
      ],
      "name": "supportsInterface",
      "outputs": [
        {
          "internalType": "bool",
          "name": "",
          "type": "bool"
        }
      ],
      "stateMutability": "view",
      "type": "function"
    },
    {
      "inputs": [],
      "name": "symbol",
      "outputs": [
        {
          "internalType": "string",
          "name": "",
          "type": "string"
        }
      ],
      "stateMutability": "view",
      "type": "function"
    },
    {
      "inputs": [
        {
          "internalType": "uint256",
          "name": "index",
          "type": "uint256"
        }
      ],
      "name": "tokenByIndex",
      "outputs": [
        {
          "internalType": "uint256",
          "name": "",
          "type": "uint256"
        }
      ],
      "stateMutability": "view",
      "type": "function"
    },
    {
      "inputs": [
        {
          "internalType": "address",
          "name": "owner",
          "type": "address"
        },
        {
          "internalType": "uint256",
          "name": "index",
          "type": "uint256"
        }
      ],
      "name": "tokenOfOwnerByIndex",
      "outputs": [
        {
          "internalType": "uint256",
          "name": "",
          "type": "uint256"
        }
      ],
      "stateMutability": "view",
      "type": "function"
    },
    {
      "inputs": [
        {
          "internalType": "uint256",
          "name": "tokenId",
          "type": "uint256"
        }
      ],
      "name": "tokenURI",
      "outputs": [
        {
          "internalType": "string",
          "name": "",
          "type": "string"
        }
      ],
      "stateMutability": "view",
      "type": "function"
    },
    {
      "inputs": [],
      "name": "totalSupply",
      "outputs": [
        {
          "internalType": "uint256",
          "name": "",
          "type": "uint256"
        }
      ],
      "stateMutability": "view",
      "type": "function"
    },
    {
      "inputs": [
        {
          "internalType": "address",
          "name": "from",
          "type": "address"
        },
        {
          "internalType": "address",
          "name": "to",
          "type": "address"
        },
        {
          "internalType": "uint256",
          "name": "tokenId",
          "type": "uint256"
        }
      ],
      "name": "transferFrom",
      "outputs": [],
      "stateMutability": "nonpayable",
      "type": "function"
    },
    {
      "inputs": [
        {
          "internalType": "address",
          "name": "newOwner",
          "type": "address"
        }
      ],
      "name": "transferOwnership",
      "outputs": [],
      "stateMutability": "nonpayable",
      "type": "function"
    },
    {
      "inputs": [
        {
          "internalType": "address",
          "name": "_owner",
          "type": "address"
        }
      ],
      "name": "walletOfOwner",
      "outputs": [
        {
          "internalType": "uint256[]",
          "name": "",
          "type": "uint256[]"
        }
      ],
      "stateMutability": "view",
      "type": "function"
    },
    {
      "inputs": [
        {
          "internalType": "address[]",
          "name": "_users",
          "type": "address[]"
        }
      ],
      "name": "whitelistUsers",
      "outputs": [],
      "stateMutability": "nonpayable",
      "type": "function"
    },
    {
      "inputs": [
        {
          "internalType": "uint256",
          "name": "",
          "type": "uint256"
        }
      ],
      "name": "whitelistedAddresses",
      "outputs": [
        {
          "internalType": "address",
          "name": "",
          "type": "address"
        }
      ],
      "stateMutability": "view",
      "type": "function"
    },
    {
      "inputs": [],
      "name": "withdraw",
      "outputs": [],
      "stateMutability": "payable",
      "type": "function"
    }
  ],
  "transactionHash": "0xa7ff25a8a42d1c3bf398b0e254080b8fc254aeeef68e714dd7d1cee5f65d10e8",
  "args": [
    "CluckyChicks",
    "Clucky Chicks",
    "https://theunderground.mypinata.cloud/ipfs/QmPpF7hVDqcn4XxKWWGY53xS8fnNL48JdNnmVMHdn7T3gF/"
  ],
  "numDeployments": 7,
  "solcInputHash": "55619ad1311ed24b6588e81173dcd96e",
  "bytecode": "0x60c06040526005608081905264173539b7b760d91b60a09081526200002891600e9190620001f9565b506040805160208101918290526000908190526200004991600f91620001f9565b506040805160208101918290526000908190526200006a91601091620001f9565b5066b147c91e4ac00060135561271060145561271060155560646016556064601755600060185560016019556000601a55348015620000a857600080fd5b50604051620033cb380380620033cb833981016040819052620000cb9162000352565b825183908390620000e4906000906020850190620001f9565b508051620000fa906001906020840190620001f9565b50505062000117620001116200012b60201b60201c565b6200012f565b620001228162000181565b50505062000432565b3390565b600a80546001600160a01b038381166001600160a01b0319831681179093556040519116919082907f8be0079c531659141344cd1fd0a4f28419497f9722a3daafe3b4186f6b6457e090600090a35050565b600a546001600160a01b03163314620001e05760405162461bcd60e51b815260206004820181905260248201527f4f776e61626c653a2063616c6c6572206973206e6f7420746865206f776e6572604482015260640160405180910390fd5b8051620001f590600d906020840190620001f9565b5050565b8280546200020790620003df565b90600052602060002090601f0160209004810192826200022b576000855562000276565b82601f106200024657805160ff191683800117855562000276565b8280016001018555821562000276579182015b828111156200027657825182559160200191906001019062000259565b506200028492915062000288565b5090565b5b8082111562000284576000815560010162000289565b600082601f830112620002b0578081fd5b81516001600160401b0380821115620002cd57620002cd6200041c565b604051601f8301601f19908116603f01168101908282118183101715620002f857620002f86200041c565b8160405283815260209250868385880101111562000314578485fd5b8491505b8382101562000337578582018301518183018401529082019062000318565b838211156200034857848385830101525b9695505050505050565b60008060006060848603121562000367578283fd5b83516001600160401b03808211156200037e578485fd5b6200038c878388016200029f565b94506020860151915080821115620003a2578384fd5b620003b0878388016200029f565b93506040860151915080821115620003c6578283fd5b50620003d5868287016200029f565b9150509250925092565b600181811c90821680620003f457607f821691505b602082108114156200041657634e487b7160e01b600052602260045260246000fd5b50919050565b634e487b7160e01b600052604160045260246000fd5b612f8980620004426000396000f3fe6080604052600436106103505760003560e01c8063715018a6116101c6578063ba4e5c49116100f7578063d28d885211610095578063e985e9c51161006f578063e985e9c51461091a578063edec5f2714610963578063f2c4ce1e14610983578063f2fde38b146109a357600080fd5b8063d28d8852146108cf578063d5abeb01146108e4578063da3ef23f146108fa57600080fd5b8063c6682862116100d1578063c668286214610864578063c7873b8314610879578063c87b56dd1461088f578063d0eb26b0146108af57600080fd5b8063ba4e5c491461080e578063ba7d2c761461082e578063c5f9816b1461084457600080fd5b80639c70b51211610164578063b09f12661161013e578063b09f12661461078e578063b10b57e0146107a3578063b187bd26146107d9578063b88d4fde146107ee57600080fd5b80639c70b51214610743578063a22cb46514610759578063a475b5dd1461077957600080fd5b80638da5cb5b116101a05780638da5cb5b146106db578063914a8710146106f95780639502743d1461071957806395d89b411461072e57600080fd5b8063715018a614610691578063743cc26a146106a65780637f00c7a6146106bb57600080fd5b8063305c42d2116102a05780634f6ccce71161023e5780635c975abb116102185780635c975abb146106265780636352211e1461063c5780636c0360eb1461065c57806370a082311461067157600080fd5b80634f6ccce7146105d057806351830227146105f057806355f804b31461060657600080fd5b806340c10f191161027a57806340c10f191461055057806342842e0e14610563578063438b63001461058357806344a0d68a146105b057600080fd5b8063305c42d2146105085780633af32abf146105285780633ccfd60b1461054857600080fd5b8063095ea7b31161030d57806318cae269116102e757806318cae26914610485578063239c70ae146104b257806323b872dd146104c85780632f745c59146104e857600080fd5b8063095ea7b31461043a57806313faede61461045a57806318160ddd1461047057600080fd5b806301ffc9a71461035557806302329a291461038a57806302fcb7af146103ac57806306fdde03146103cb578063081812fc146103ed578063081c8c4414610425575b600080fd5b34801561036157600080fd5b50610375610370366004612afc565b6109c3565b60405190151581526020015b60405180910390f35b34801561039657600080fd5b506103aa6103a5366004612ae2565b6109ee565b005b3480156103b857600080fd5b506015545b604051908152602001610381565b3480156103d757600080fd5b506103e0610a38565b6040516103819190612d01565b3480156103f957600080fd5b5061040d610408366004612b7a565b610aca565b6040516001600160a01b039091168152602001610381565b34801561043157600080fd5b506103e0610b5f565b34801561044657600080fd5b506103aa610455366004612a49565b610bed565b34801561046657600080fd5b506103bd60135481565b34801561047c57600080fd5b506008546103bd565b34801561049157600080fd5b506103bd6104a0366004612919565b601c6020526000908152604090205481565b3480156104be57600080fd5b506103bd60165481565b3480156104d457600080fd5b506103aa6104e336600461296c565b610d03565b3480156104f457600080fd5b506103bd610503366004612a49565b610d34565b34801561051457600080fd5b506103aa610523366004612b7a565b610dca565b34801561053457600080fd5b50610375610543366004612919565b610df9565b6103aa610e71565b6103aa61055e366004612a49565b610f8d565b34801561056f57600080fd5b506103aa61057e36600461296c565b611325565b34801561058f57600080fd5b506105a361059e366004612919565b611340565b6040516103819190612cbd565b3480156105bc57600080fd5b506103aa6105cb366004612b7a565b6113fe565b3480156105dc57600080fd5b506103bd6105eb366004612b7a565b61142d565b3480156105fc57600080fd5b506103bd60195481565b34801561061257600080fd5b506103aa610621366004612b34565b6114ce565b34801561063257600080fd5b506103bd601a5481565b34801561064857600080fd5b5061040d610657366004612b7a565b61150b565b34801561066857600080fd5b506103e0611582565b34801561067d57600080fd5b506103bd61068c366004612919565b61158f565b34801561069d57600080fd5b506103aa611616565b3480156106b257600080fd5b506103bd61164c565b3480156106c757600080fd5b506103aa6106d6366004612b7a565b61169e565b3480156106e757600080fd5b50600a546001600160a01b031661040d565b34801561070557600080fd5b5061040d610714366004612b7a565b6116cd565b34801561072557600080fd5b506103e0611716565b34801561073a57600080fd5b506103e0611723565b34801561074f57600080fd5b506103bd60185481565b34801561076557600080fd5b506103aa610774366004612a20565b611732565b34801561078557600080fd5b506103aa61173d565b34801561079a57600080fd5b506103e061176e565b3480156107af57600080fd5b5061040d6107be366004612b7a565b600b602052600090815260409020546001600160a01b031681565b3480156107e557600080fd5b50601a546103bd565b3480156107fa57600080fd5b506103aa6108093660046129a7565b61177b565b34801561081a57600080fd5b5061040d610829366004612b7a565b6117b3565b34801561083a57600080fd5b506103bd60175481565b34801561085057600080fd5b506103aa61085f366004612b7a565b6117dd565b34801561087057600080fd5b506103e061180c565b34801561088557600080fd5b506103bd60155481565b34801561089b57600080fd5b506103e06108aa366004612b7a565b611819565b3480156108bb57600080fd5b506103aa6108ca366004612b7a565b611a3c565b3480156108db57600080fd5b506103e0611a6b565b3480156108f057600080fd5b506103bd60145481565b34801561090657600080fd5b506103aa610915366004612b34565b611a78565b34801561092657600080fd5b5061037561093536600461293a565b6001600160a01b03918216600090815260056020908152604080832093909416825291909152205460ff1690565b34801561096f57600080fd5b506103aa61097e366004612a72565b611ab5565b34801561098f57600080fd5b506103aa61099e366004612b34565b611af7565b3480156109af57600080fd5b506103aa6109be366004612919565b611b34565b60006001600160e01b0319821663780e9d6360e01b14806109e857506109e882611bcc565b92915050565b600a546001600160a01b03163314610a215760405162461bcd60e51b8152600401610a1890612d66565b60405180910390fd5b8015610a2f576001601a5550565b6000601a555b50565b606060008054610a4790612e91565b80601f0160208091040260200160405190810160405280929190818152602001828054610a7390612e91565b8015610ac05780601f10610a9557610100808354040283529160200191610ac0565b820191906000526020600020905b815481529060010190602001808311610aa357829003601f168201915b5050505050905090565b6000818152600260205260408120546001600160a01b0316610b435760405162461bcd60e51b815260206004820152602c60248201527f4552433732313a20617070726f76656420717565727920666f72206e6f6e657860448201526b34b9ba32b73a103a37b5b2b760a11b6064820152608401610a18565b506000908152600460205260409020546001600160a01b031690565b60108054610b6c90612e91565b80601f0160208091040260200160405190810160405280929190818152602001828054610b9890612e91565b8015610be55780601f10610bba57610100808354040283529160200191610be5565b820191906000526020600020905b815481529060010190602001808311610bc857829003601f168201915b505050505081565b6000610bf88261150b565b9050806001600160a01b0316836001600160a01b03161415610c665760405162461bcd60e51b815260206004820152602160248201527f4552433732313a20617070726f76616c20746f2063757272656e74206f776e656044820152603960f91b6064820152608401610a18565b336001600160a01b0382161480610c825750610c828133610935565b610cf45760405162461bcd60e51b815260206004820152603860248201527f4552433732313a20617070726f76652063616c6c6572206973206e6f74206f7760448201527f6e6572206e6f7220617070726f76656420666f7220616c6c00000000000000006064820152608401610a18565b610cfe8383611c1c565b505050565b610d0d3382611c8a565b610d295760405162461bcd60e51b8152600401610a1890612d9b565b610cfe838383611d81565b6000610d3f8361158f565b8210610da15760405162461bcd60e51b815260206004820152602b60248201527f455243373231456e756d657261626c653a206f776e657220696e646578206f7560448201526a74206f6620626f756e647360a81b6064820152608401610a18565b506001600160a01b03919091166000908152600660209081526040808320938352929052205490565b600a546001600160a01b03163314610df45760405162461bcd60e51b8152600401610a1890612d66565b601555565b6000805b601b54811015610e6857826001600160a01b0316601b8281548110610e3257634e487b7160e01b600052603260045260246000fd5b6000918252602090912001546001600160a01b03161415610e565750600192915050565b80610e6081612ecc565b915050610dfd565b50600092915050565b600a546001600160a01b03163314610e9b5760405162461bcd60e51b8152600401610a1890612d66565b6000739660c846fa92c99b420770d4ae1d1b63542033546064610ebf47600a612e18565b610ec99190612e04565b604051600081818185875af1925050503d8060008114610f05576040519150601f19603f3d011682016040523d82523d6000602084013e610f0a565b606091505b5050905080610f1857600080fd5b6000610f2c600a546001600160a01b031690565b6001600160a01b03164760405160006040518083038185875af1925050503d8060008114610f76576040519150601f19603f3d011682016040523d82523d6000602084013e610f7b565b606091505b5050905080610f8957600080fd5b5050565b6000610f9860085490565b9050601a54600014610fdd5760405162461bcd60e51b815260206004820152600e60248201526d135a5b9d081a5cc81c185d5cd95960921b6044820152606401610a18565b3361102a5760405162461bcd60e51b815260206004820152601b60248201527f526563697069656e742073686f756c642062652070726573656e7400000000006044820152606401610a18565b6000821161107a5760405162461bcd60e51b815260206004820152601b60248201527f4e65656420746f206d696e74206174206c656173742031204e465400000000006044820152606401610a18565b6000601554116110c55760405162461bcd60e51b815260206004820152601660248201527513585e08139195081b1a5b5a5d08195e18d95959195960521b6044820152606401610a18565b600a546001600160a01b031633146112a157601854600114156111a4576110eb33610df9565b6111375760405162461bcd60e51b815260206004820152601760248201527f55736572206973206e6f742077686974656c69737465640000000000000000006044820152606401610a18565b336000908152601c60205260409020546017546111548483612dec565b11156111a25760405162461bcd60e51b815260206004820152601c60248201527f4d6178204e4654207065722061646472657373206578636565646564000000006044820152606401610a18565b505b346111f15760405162461bcd60e51b815260206004820181905260248201527f526f79616c74792076616c75652073686f756c6420626520706f7369746976656044820152606401610a18565b816013546111ff9190612e18565b3410156112435760405162461bcd60e51b8152602060048201526012602482015271496e73756666696369656e742066756e647360701b6044820152606401610a18565b6016548211156112a15760405162461bcd60e51b8152602060048201526024808201527f4d6178206d696e7420616d6f756e74207065722073657373696f6e20657863656044820152631959195960e21b6064820152608401610a18565b60015b828111611306576112be846112b98385612dec565b611f28565b336000908152601c602052604081208054916112d983612ecc565b9091555050601580549060006112ee83612e7a565b919050555080806112fe90612ecc565b9150506112a4565b506103e86015546113179190612ee7565b610cfe576001601a55505050565b610cfe8383836040518060200160405280600081525061177b565b6060600061134d8361158f565b905060008167ffffffffffffffff81111561137857634e487b7160e01b600052604160045260246000fd5b6040519080825280602002602001820160405280156113a1578160200160208202803683370190505b50905060005b828110156113f6576113b98582610d34565b8282815181106113d957634e487b7160e01b600052603260045260246000fd5b6020908102919091010152806113ee81612ecc565b9150506113a7565b509392505050565b600a546001600160a01b031633146114285760405162461bcd60e51b8152600401610a1890612d66565b601355565b600061143860085490565b821061149b5760405162461bcd60e51b815260206004820152602c60248201527f455243373231456e756d657261626c653a20676c6f62616c20696e646578206f60448201526b7574206f6620626f756e647360a01b6064820152608401610a18565b600882815481106114bc57634e487b7160e01b600052603260045260246000fd5b90600052602060002001549050919050565b600a546001600160a01b031633146114f85760405162461bcd60e51b8152600401610a1890612d66565b8051610f8990600d90602084019061276d565b6000818152600260205260408120546001600160a01b0316806109e85760405162461bcd60e51b815260206004820152602960248201527f4552433732313a206f776e657220717565727920666f72206e6f6e657869737460448201526832b73a103a37b5b2b760b91b6064820152608401610a18565b600d8054610b6c90612e91565b60006001600160a01b0382166115fa5760405162461bcd60e51b815260206004820152602a60248201527f4552433732313a2062616c616e636520717565727920666f7220746865207a65604482015269726f206164647265737360b01b6064820152608401610a18565b506001600160a01b031660009081526003602052604090205490565b600a546001600160a01b031633146116405760405162461bcd60e51b8152600401610a1890612d66565b61164a6000611f42565b565b600080611661600a546001600160a01b031690565b6001600160a01b0316336001600160a01b03161461169657336000908152601c60205260409020546017546109e89190612e37565b5060c8919050565b600a546001600160a01b031633146116c85760405162461bcd60e51b8152600401610a1890612d66565b601655565b6000818152600b60205260408120546001600160a01b03166116fa57600a546001600160a01b03166109e8565b506000908152600b60205260409020546001600160a01b031690565b600f8054610b6c90612e91565b606060018054610a4790612e91565b610f89338383611f94565b600a546001600160a01b031633146117675760405162461bcd60e51b8152600401610a1890612d66565b6001601955565b60128054610b6c90612e91565b6117853383611c8a565b6117a15760405162461bcd60e51b8152600401610a1890612d9b565b6117ad84848484612063565b50505050565b601b81815481106117c357600080fd5b6000918252602090912001546001600160a01b0316905081565b600a546001600160a01b031633146118075760405162461bcd60e51b8152600401610a1890612d66565b601855565b600e8054610b6c90612e91565b6000818152600260205260409020546060906001600160a01b03166118985760405162461bcd60e51b815260206004820152602f60248201527f4552433732314d657461646174613a2055524920717565727920666f72206e6f60448201526e3732bc34b9ba32b73a103a37b5b2b760891b6064820152608401610a18565b6000828152600c6020526040812080546118b190612e91565b80601f01602080910402602001604051908101604052809291908181526020018280546118dd90612e91565b801561192a5780601f106118ff5761010080835404028352916020019161192a565b820191906000526020600020905b81548152906001019060200180831161190d57829003601f168201915b50505050509050600061193b612096565b9050601954600014156119dc576010805461195590612e91565b80601f016020809104026020016040519081016040528092919081815260200182805461198190612e91565b80156119ce5780601f106119a3576101008083540402835291602001916119ce565b820191906000526020600020905b8154815290600101906020018083116119b157829003601f168201915b505050505092505050919050565b80516119e9575092915050565b815115611a1e578082600e604051602001611a0693929190612bbe565b60405160208183030381529060405292505050919050565b80611a28856120a5565b600e604051602001611a0693929190612bbe565b600a546001600160a01b03163314611a665760405162461bcd60e51b8152600401610a1890612d66565b601755565b60118054610b6c90612e91565b600a546001600160a01b03163314611aa25760405162461bcd60e51b8152600401610a1890612d66565b8051610f8990600e90602084019061276d565b600a546001600160a01b03163314611adf5760405162461bcd60e51b8152600401610a1890612d66565b611aeb601b60006127f1565b610cfe601b838361280f565b600a546001600160a01b03163314611b215760405162461bcd60e51b8152600401610a1890612d66565b8051610f8990601090602084019061276d565b600a546001600160a01b03163314611b5e5760405162461bcd60e51b8152600401610a1890612d66565b6001600160a01b038116611bc35760405162461bcd60e51b815260206004820152602660248201527f4f776e61626c653a206e6577206f776e657220697320746865207a65726f206160448201526564647265737360d01b6064820152608401610a18565b610a3581611f42565b60006001600160e01b031982166380ac58cd60e01b1480611bfd57506001600160e01b03198216635b5e139f60e01b145b806109e857506301ffc9a760e01b6001600160e01b03198316146109e8565b600081815260046020526040902080546001600160a01b0319166001600160a01b0384169081179091558190611c518261150b565b6001600160a01b03167f8c5be1e5ebec7d5bd14f71427d1e84f3dd0314c0f7b2291e5b200ac8c7c3b92560405160405180910390a45050565b6000818152600260205260408120546001600160a01b0316611d035760405162461bcd60e51b815260206004820152602c60248201527f4552433732313a206f70657261746f7220717565727920666f72206e6f6e657860448201526b34b9ba32b73a103a37b5b2b760a11b6064820152608401610a18565b6000611d0e8361150b565b9050806001600160a01b0316846001600160a01b03161480611d495750836001600160a01b0316611d3e84610aca565b6001600160a01b0316145b80611d7957506001600160a01b0380821660009081526005602090815260408083209388168352929052205460ff165b949350505050565b826001600160a01b0316611d948261150b565b6001600160a01b031614611df85760405162461bcd60e51b815260206004820152602560248201527f4552433732313a207472616e736665722066726f6d20696e636f72726563742060448201526437bbb732b960d91b6064820152608401610a18565b6001600160a01b038216611e5a5760405162461bcd60e51b8152602060048201526024808201527f4552433732313a207472616e7366657220746f20746865207a65726f206164646044820152637265737360e01b6064820152608401610a18565b611e658383836121bf565b611e70600082611c1c565b6001600160a01b0383166000908152600360205260408120805460019290611e99908490612e37565b90915550506001600160a01b0382166000908152600360205260408120805460019290611ec7908490612dec565b909155505060008181526002602052604080822080546001600160a01b0319166001600160a01b0386811691821790925591518493918716917fddf252ad1be2c89b69c2b068fc378daa952ba7f163c4a11628f55a4df523b3ef91a4505050565b610f8982826040518060200160405280600081525061226d565b600a80546001600160a01b038381166001600160a01b0319831681179093556040519116919082907f8be0079c531659141344cd1fd0a4f28419497f9722a3daafe3b4186f6b6457e090600090a35050565b816001600160a01b0316836001600160a01b03161415611ff65760405162461bcd60e51b815260206004820152601960248201527f4552433732313a20617070726f766520746f2063616c6c6572000000000000006044820152606401610a18565b6001600160a01b03838116600081815260056020908152604080832094871680845294825291829020805460ff191686151590811790915591519182527f17307eab39ab6107e8899845ad3d59bd9653f200f220920489ca2b5937696c31910160405180910390a3505050565b61206e848484611d81565b61207a848484846122a0565b6117ad5760405162461bcd60e51b8152600401610a1890612d14565b6060600d8054610a4790612e91565b6060816120c95750506040805180820190915260018152600360fc1b602082015290565b8160005b81156120f357806120dd81612ecc565b91506120ec9050600a83612e04565b91506120cd565b60008167ffffffffffffffff81111561211c57634e487b7160e01b600052604160045260246000fd5b6040519080825280601f01601f191660200182016040528015612146576020820181803683370190505b5090505b8415611d795761215b600183612e37565b9150612168600a86612ee7565b612173906030612dec565b60f81b81838151811061219657634e487b7160e01b600052603260045260246000fd5b60200101906001600160f81b031916908160001a9053506121b8600a86612e04565b945061214a565b6121ca8383836123ad565b6001600160a01b0383166121dd57612213565b816001600160a01b0316836001600160a01b031614612213576000818152600b6020526040902080546001600160a01b03191690555b6001600160a01b03821661222657505050565b826001600160a01b0316826001600160a01b031614610cfe576000818152600b6020526040902080546001600160a01b0384166001600160a01b0319909116179055505050565b6122778383612465565b61228460008484846122a0565b610cfe5760405162461bcd60e51b8152600401610a1890612d14565b60006001600160a01b0384163b156123a257604051630a85bd0160e11b81526001600160a01b0385169063150b7a02906122e4903390899088908890600401612c80565b602060405180830381600087803b1580156122fe57600080fd5b505af192505050801561232e575060408051601f3d908101601f1916820190925261232b91810190612b18565b60015b612388573d80801561235c576040519150601f19603f3d011682016040523d82523d6000602084013e612361565b606091505b5080516123805760405162461bcd60e51b8152600401610a1890612d14565b805181602001fd5b6001600160e01b031916630a85bd0160e11b149050611d79565b506001949350505050565b6001600160a01b0383166124085761240381600880546000838152600960205260408120829055600182018355919091527ff3f7a9fe364faab93b216da50a3214154f22a0a2b415b23a84c8169e8b636ee30155565b61242b565b816001600160a01b0316836001600160a01b03161461242b5761242b83826125b3565b6001600160a01b03821661244257610cfe81612650565b826001600160a01b0316826001600160a01b031614610cfe57610cfe8282612729565b6001600160a01b0382166124bb5760405162461bcd60e51b815260206004820181905260248201527f4552433732313a206d696e7420746f20746865207a65726f20616464726573736044820152606401610a18565b6000818152600260205260409020546001600160a01b0316156125205760405162461bcd60e51b815260206004820152601c60248201527f4552433732313a20746f6b656e20616c7265616479206d696e746564000000006044820152606401610a18565b61252c600083836121bf565b6001600160a01b0382166000908152600360205260408120805460019290612555908490612dec565b909155505060008181526002602052604080822080546001600160a01b0319166001600160a01b03861690811790915590518392907fddf252ad1be2c89b69c2b068fc378daa952ba7f163c4a11628f55a4df523b3ef908290a45050565b600060016125c08461158f565b6125ca9190612e37565b60008381526007602052604090205490915080821461261d576001600160a01b03841660009081526006602090815260408083208584528252808320548484528184208190558352600790915290208190555b5060009182526007602090815260408084208490556001600160a01b039094168352600681528383209183525290812055565b60085460009061266290600190612e37565b6000838152600960205260408120546008805493945090928490811061269857634e487b7160e01b600052603260045260246000fd5b9060005260206000200154905080600883815481106126c757634e487b7160e01b600052603260045260246000fd5b600091825260208083209091019290925582815260099091526040808220849055858252812055600880548061270d57634e487b7160e01b600052603160045260246000fd5b6001900381819060005260206000200160009055905550505050565b60006127348361158f565b6001600160a01b039093166000908152600660209081526040808320868452825280832085905593825260079052919091209190915550565b82805461277990612e91565b90600052602060002090601f01602090048101928261279b57600085556127e1565b82601f106127b457805160ff19168380011785556127e1565b828001600101855582156127e1579182015b828111156127e15782518255916020019190600101906127c6565b506127ed929150612862565b5090565b5080546000825590600052602060002090810190610a359190612862565b8280548282559060005260206000209081019282156127e1579160200282015b828111156127e15781546001600160a01b0319166001600160a01b0384351617825560209092019160019091019061282f565b5b808211156127ed5760008155600101612863565b600067ffffffffffffffff8084111561289257612892612f27565b604051601f8501601f19908116603f011681019082821181831017156128ba576128ba612f27565b816040528093508581528686860111156128d357600080fd5b858560208301376000602087830101525050509392505050565b80356001600160a01b038116811461290457600080fd5b919050565b8035801515811461290457600080fd5b60006020828403121561292a578081fd5b612933826128ed565b9392505050565b6000806040838503121561294c578081fd5b612955836128ed565b9150612963602084016128ed565b90509250929050565b600080600060608486031215612980578081fd5b612989846128ed565b9250612997602085016128ed565b9150604084013590509250925092565b600080600080608085870312156129bc578081fd5b6129c5856128ed565b93506129d3602086016128ed565b925060408501359150606085013567ffffffffffffffff8111156129f5578182fd5b8501601f81018713612a05578182fd5b612a1487823560208401612877565b91505092959194509250565b60008060408385031215612a32578182fd5b612a3b836128ed565b915061296360208401612909565b60008060408385031215612a5b578182fd5b612a64836128ed565b946020939093013593505050565b60008060208385031215612a84578182fd5b823567ffffffffffffffff80821115612a9b578384fd5b818501915085601f830112612aae578384fd5b813581811115612abc578485fd5b8660208260051b8501011115612ad0578485fd5b60209290920196919550909350505050565b600060208284031215612af3578081fd5b61293382612909565b600060208284031215612b0d578081fd5b813561293381612f3d565b600060208284031215612b29578081fd5b815161293381612f3d565b600060208284031215612b45578081fd5b813567ffffffffffffffff811115612b5b578182fd5b8201601f81018413612b6b578182fd5b611d7984823560208401612877565b600060208284031215612b8b578081fd5b5035919050565b60008151808452612baa816020860160208601612e4e565b601f01601f19169290920160200192915050565b600084516020612bd18285838a01612e4e565b855191840191612be48184848a01612e4e565b85549201918390600181811c9080831680612c0057607f831692505b858310811415612c1e57634e487b7160e01b88526022600452602488fd5b808015612c325760018114612c4357612c6f565b60ff19851688528388019550612c6f565b60008b815260209020895b85811015612c675781548a820152908401908801612c4e565b505083880195505b50939b9a5050505050505050505050565b6001600160a01b0385811682528416602082015260408101839052608060608201819052600090612cb390830184612b92565b9695505050505050565b6020808252825182820181905260009190848201906040850190845b81811015612cf557835183529284019291840191600101612cd9565b50909695505050505050565b6020815260006129336020830184612b92565b60208082526032908201527f4552433732313a207472616e7366657220746f206e6f6e20455243373231526560408201527131b2b4bb32b91034b6b83632b6b2b73a32b960711b606082015260800190565b6020808252818101527f4f776e61626c653a2063616c6c6572206973206e6f7420746865206f776e6572604082015260600190565b60208082526031908201527f4552433732313a207472616e736665722063616c6c6572206973206e6f74206f6040820152701ddb995c881b9bdc88185c1c1c9bdd9959607a1b606082015260800190565b60008219821115612dff57612dff612efb565b500190565b600082612e1357612e13612f11565b500490565b6000816000190483118215151615612e3257612e32612efb565b500290565b600082821015612e4957612e49612efb565b500390565b60005b83811015612e69578181015183820152602001612e51565b838111156117ad5750506000910152565b600081612e8957612e89612efb565b506000190190565b600181811c90821680612ea557607f821691505b60208210811415612ec657634e487b7160e01b600052602260045260246000fd5b50919050565b6000600019821415612ee057612ee0612efb565b5060010190565b600082612ef657612ef6612f11565b500690565b634e487b7160e01b600052601160045260246000fd5b634e487b7160e01b600052601260045260246000fd5b634e487b7160e01b600052604160045260246000fd5b6001600160e01b031981168114610a3557600080fdfea2646970667358221220312f88183ee01a75293197ebbfc355c2dcd972e90afa71a92fcf60e352bc457264736f6c63430008040033",
  "devdoc": {
    "kind": "dev",
    "methods": {
      "approve(address,uint256)": {
        "details": "See {IERC721-approve}."
      },
      "balanceOf(address)": {
        "details": "See {IERC721-balanceOf}."
      },
      "getApproved(uint256)": {
        "details": "See {IERC721-getApproved}."
      },
      "isApprovedForAll(address,address)": {
        "details": "See {IERC721-isApprovedForAll}."
      },
      "name()": {
        "details": "See {IERC721Metadata-name}."
      },
      "owner()": {
        "details": "Returns the address of the current owner."
      },
      "ownerOf(uint256)": {
        "details": "See {IERC721-ownerOf}."
      },
      "renounceOwnership()": {
        "details": "Leaves the contract without owner. It will not be possible to call `onlyOwner` functions anymore. Can only be called by the current owner. NOTE: Renouncing ownership will leave the contract without an owner, thereby removing any functionality that is only available to the owner."
      },
      "safeTransferFrom(address,address,uint256)": {
        "details": "See {IERC721-safeTransferFrom}."
      },
      "safeTransferFrom(address,address,uint256,bytes)": {
        "details": "See {IERC721-safeTransferFrom}."
      },
      "setApprovalForAll(address,bool)": {
        "details": "See {IERC721-setApprovalForAll}."
      },
      "supportsInterface(bytes4)": {
        "details": "See {IERC165-supportsInterface}."
      },
      "symbol()": {
        "details": "See {IERC721Metadata-symbol}."
      },
      "tokenByIndex(uint256)": {
        "details": "See {IERC721Enumerable-tokenByIndex}."
      },
      "tokenOfOwnerByIndex(address,uint256)": {
        "details": "See {IERC721Enumerable-tokenOfOwnerByIndex}."
      },
      "tokenURI(uint256)": {
        "details": "See {IERC721Metadata-tokenURI}."
      },
      "totalSupply()": {
        "details": "See {IERC721Enumerable-totalSupply}."
      },
      "transferFrom(address,address,uint256)": {
        "details": "See {IERC721-transferFrom}."
      },
      "transferOwnership(address)": {
        "details": "Transfers ownership of the contract to a new account (`newOwner`). Can only be called by the current owner."
      }
    },
    "version": 1
  },
  "userdoc": {
    "kind": "user",
    "methods": {},
    "version": 1
  },
  "storageLayout": {
    "storage": [
      {
        "astId": 913,
        "contract": "contracts/Chicks.sol:Chicks",
        "label": "_name",
        "offset": 0,
        "slot": "0",
        "type": "t_string_storage"
      },
      {
        "astId": 915,
        "contract": "contracts/Chicks.sol:Chicks",
        "label": "_symbol",
        "offset": 0,
        "slot": "1",
        "type": "t_string_storage"
      },
      {
        "astId": 919,
        "contract": "contracts/Chicks.sol:Chicks",
        "label": "_owners",
        "offset": 0,
        "slot": "2",
        "type": "t_mapping(t_uint256,t_address)"
      },
      {
        "astId": 923,
        "contract": "contracts/Chicks.sol:Chicks",
        "label": "_balances",
        "offset": 0,
        "slot": "3",
        "type": "t_mapping(t_address,t_uint256)"
      },
      {
        "astId": 927,
        "contract": "contracts/Chicks.sol:Chicks",
        "label": "_tokenApprovals",
        "offset": 0,
        "slot": "4",
        "type": "t_mapping(t_uint256,t_address)"
      },
      {
        "astId": 933,
        "contract": "contracts/Chicks.sol:Chicks",
        "label": "_operatorApprovals",
        "offset": 0,
        "slot": "5",
        "type": "t_mapping(t_address,t_mapping(t_address,t_bool))"
      },
      {
        "astId": 1902,
        "contract": "contracts/Chicks.sol:Chicks",
        "label": "_ownedTokens",
        "offset": 0,
        "slot": "6",
        "type": "t_mapping(t_address,t_mapping(t_uint256,t_uint256))"
      },
      {
        "astId": 1906,
        "contract": "contracts/Chicks.sol:Chicks",
        "label": "_ownedTokensIndex",
        "offset": 0,
        "slot": "7",
        "type": "t_mapping(t_uint256,t_uint256)"
      },
      {
        "astId": 1909,
        "contract": "contracts/Chicks.sol:Chicks",
        "label": "_allTokens",
        "offset": 0,
        "slot": "8",
        "type": "t_array(t_uint256)dyn_storage"
      },
      {
        "astId": 1913,
        "contract": "contracts/Chicks.sol:Chicks",
        "label": "_allTokensIndex",
        "offset": 0,
        "slot": "9",
        "type": "t_mapping(t_uint256,t_uint256)"
      },
      {
        "astId": 7,
        "contract": "contracts/Chicks.sol:Chicks",
        "label": "_owner",
        "offset": 0,
        "slot": "10",
        "type": "t_address"
      },
      {
        "astId": 3164,
        "contract": "contracts/Chicks.sol:Chicks",
        "label": "_ownedTokens",
        "offset": 0,
        "slot": "11",
        "type": "t_mapping(t_uint256,t_address)"
      },
      {
        "astId": 3168,
        "contract": "contracts/Chicks.sol:Chicks",
        "label": "_tokenURIs",
        "offset": 0,
        "slot": "12",
        "type": "t_mapping(t_uint256,t_string_storage)"
      },
      {
        "astId": 3170,
        "contract": "contracts/Chicks.sol:Chicks",
        "label": "baseURI",
        "offset": 0,
        "slot": "13",
        "type": "t_string_storage"
      },
      {
        "astId": 3173,
        "contract": "contracts/Chicks.sol:Chicks",
        "label": "baseExtension",
        "offset": 0,
        "slot": "14",
        "type": "t_string_storage"
      },
      {
        "astId": 3176,
        "contract": "contracts/Chicks.sol:Chicks",
        "label": "metaDataFolder",
        "offset": 0,
        "slot": "15",
        "type": "t_string_storage"
      },
      {
        "astId": 3179,
        "contract": "contracts/Chicks.sol:Chicks",
        "label": "notRevealedUri",
        "offset": 0,
        "slot": "16",
        "type": "t_string_storage"
      },
      {
        "astId": 3181,
        "contract": "contracts/Chicks.sol:Chicks",
        "label": "_name",
        "offset": 0,
        "slot": "17",
        "type": "t_string_storage"
      },
      {
        "astId": 3183,
        "contract": "contracts/Chicks.sol:Chicks",
        "label": "_symbol",
        "offset": 0,
        "slot": "18",
        "type": "t_string_storage"
      },
      {
        "astId": 3186,
        "contract": "contracts/Chicks.sol:Chicks",
        "label": "cost",
        "offset": 0,
        "slot": "19",
        "type": "t_uint256"
      },
      {
        "astId": 3189,
        "contract": "contracts/Chicks.sol:Chicks",
        "label": "maxSupply",
        "offset": 0,
        "slot": "20",
        "type": "t_uint256"
      },
      {
        "astId": 3192,
        "contract": "contracts/Chicks.sol:Chicks",
        "label": "remainTokenAmount",
        "offset": 0,
        "slot": "21",
        "type": "t_uint256"
      },
      {
        "astId": 3195,
        "contract": "contracts/Chicks.sol:Chicks",
        "label": "maxMintAmount",
        "offset": 0,
        "slot": "22",
        "type": "t_uint256"
      },
      {
        "astId": 3198,
        "contract": "contracts/Chicks.sol:Chicks",
        "label": "nftPerAddressLimit",
        "offset": 0,
        "slot": "23",
        "type": "t_uint256"
      },
      {
        "astId": 3201,
        "contract": "contracts/Chicks.sol:Chicks",
        "label": "onlyWhitelisted",
        "offset": 0,
        "slot": "24",
        "type": "t_uint256"
      },
      {
        "astId": 3204,
        "contract": "contracts/Chicks.sol:Chicks",
        "label": "revealed",
        "offset": 0,
        "slot": "25",
        "type": "t_uint256"
      },
      {
        "astId": 3207,
        "contract": "contracts/Chicks.sol:Chicks",
        "label": "paused",
        "offset": 0,
        "slot": "26",
        "type": "t_uint256"
      },
      {
        "astId": 3210,
        "contract": "contracts/Chicks.sol:Chicks",
        "label": "whitelistedAddresses",
        "offset": 0,
        "slot": "27",
        "type": "t_array(t_address)dyn_storage"
      },
      {
        "astId": 3214,
        "contract": "contracts/Chicks.sol:Chicks",
        "label": "addressMintedBalance",
        "offset": 0,
        "slot": "28",
        "type": "t_mapping(t_address,t_uint256)"
      }
    ],
    "types": {
      "t_address": {
        "encoding": "inplace",
        "label": "address",
        "numberOfBytes": "20"
      },
      "t_array(t_address)dyn_storage": {
        "base": "t_address",
        "encoding": "dynamic_array",
        "label": "address[]",
        "numberOfBytes": "32"
      },
      "t_array(t_uint256)dyn_storage": {
        "base": "t_uint256",
        "encoding": "dynamic_array",
        "label": "uint256[]",
        "numberOfBytes": "32"
      },
      "t_bool": {
        "encoding": "inplace",
        "label": "bool",
        "numberOfBytes": "1"
      },
      "t_mapping(t_address,t_bool)": {
        "encoding": "mapping",
        "key": "t_address",
        "label": "mapping(address => bool)",
        "numberOfBytes": "32",
        "value": "t_bool"
      },
      "t_mapping(t_address,t_mapping(t_address,t_bool))": {
        "encoding": "mapping",
        "key": "t_address",
        "label": "mapping(address => mapping(address => bool))",
        "numberOfBytes": "32",
        "value": "t_mapping(t_address,t_bool)"
      },
      "t_mapping(t_address,t_mapping(t_uint256,t_uint256))": {
        "encoding": "mapping",
        "key": "t_address",
        "label": "mapping(address => mapping(uint256 => uint256))",
        "numberOfBytes": "32",
        "value": "t_mapping(t_uint256,t_uint256)"
      },
      "t_mapping(t_address,t_uint256)": {
        "encoding": "mapping",
        "key": "t_address",
        "label": "mapping(address => uint256)",
        "numberOfBytes": "32",
        "value": "t_uint256"
      },
      "t_mapping(t_uint256,t_address)": {
        "encoding": "mapping",
        "key": "t_uint256",
        "label": "mapping(uint256 => address)",
        "numberOfBytes": "32",
        "value": "t_address"
      },
      "t_mapping(t_uint256,t_string_storage)": {
        "encoding": "mapping",
        "key": "t_uint256",
        "label": "mapping(uint256 => string)",
        "numberOfBytes": "32",
        "value": "t_string_storage"
      },
      "t_mapping(t_uint256,t_uint256)": {
        "encoding": "mapping",
        "key": "t_uint256",
        "label": "mapping(uint256 => uint256)",
        "numberOfBytes": "32",
        "value": "t_uint256"
      },
      "t_string_storage": {
        "encoding": "bytes",
        "label": "string",
        "numberOfBytes": "32"
      },
      "t_uint256": {
        "encoding": "inplace",
        "label": "uint256",
        "numberOfBytes": "32"
      }
    }
  }
}