{
  "_format": "hh-sol-artifact-1",
  "contractName": "ChicksStaking",
  "sourceName": "contracts/ChicksStaking.sol",
  "abi": [
    {
      "inputs": [
        {
          "internalType": "contract Chicks",
          "name": "chicksContract",
          "type": "address"
        },
        {
          "internalType": "contract Egg",
          "name": "eggContract",
          "type": "address"
        }
      ],
      "stateMutability": "nonpayable",
      "type": "constructor"
    },
    {
      "anonymous": false,
      "inputs": [
        {
          "indexed": true,
          "internalType": "address",
          "name": "previousOwner",
          "type": "address"
        },
        {
          "indexed": true,
          "internalType": "address",
          "name": "newOwner",
          "type": "address"
        }
      ],
      "name": "OwnershipTransferred",
      "type": "event"
    },
    {
      "anonymous": false,
      "inputs": [
        {
          "indexed": true,
          "internalType": "address",
          "name": "user",
          "type": "address"
        },
        {
          "indexed": false,
          "internalType": "uint256",
          "name": "reward",
          "type": "uint256"
        }
      ],
      "name": "RewardPaid",
      "type": "event"
    },
    {
      "anonymous": false,
      "inputs": [
        {
          "indexed": false,
          "internalType": "address",
          "name": "owner",
          "type": "address"
        },
        {
          "indexed": false,
          "internalType": "uint256",
          "name": "amount",
          "type": "uint256"
        }
      ],
      "name": "Staked",
      "type": "event"
    },
    {
      "anonymous": false,
      "inputs": [
        {
          "indexed": false,
          "internalType": "address",
          "name": "owner",
          "type": "address"
        },
        {
          "indexed": false,
          "internalType": "uint256",
          "name": "amount",
          "type": "uint256"
        }
      ],
      "name": "Unstaked",
      "type": "event"
    },
    {
      "inputs": [],
      "name": "_chicksContract",
      "outputs": [
        {
          "internalType": "contract Chicks",
          "name": "",
          "type": "address"
        }
      ],
      "stateMutability": "view",
      "type": "function"
    },
    {
      "inputs": [],
      "name": "_eggContract",
      "outputs": [
        {
          "internalType": "contract Egg",
          "name": "",
          "type": "address"
        }
      ],
      "stateMutability": "view",
      "type": "function"
    },
    {
      "inputs": [],
      "name": "allowClaiming",
      "outputs": [
        {
          "internalType": "bool",
          "name": "",
          "type": "bool"
        }
      ],
      "stateMutability": "view",
      "type": "function"
    },
    {
      "inputs": [],
      "name": "allowStaking",
      "outputs": [
        {
          "internalType": "bool",
          "name": "",
          "type": "bool"
        }
      ],
      "stateMutability": "view",
      "type": "function"
    },
    {
      "inputs": [
        {
          "internalType": "address",
          "name": "user",
          "type": "address"
        }
      ],
      "name": "calcRewardPerDay",
      "outputs": [
        {
          "internalType": "uint256",
          "name": "",
          "type": "uint256"
        }
      ],
      "stateMutability": "view",
      "type": "function"
    },
    {
      "inputs": [
        {
          "internalType": "address",
          "name": "user",
          "type": "address"
        }
      ],
      "name": "claimAll",
      "outputs": [],
      "stateMutability": "nonpayable",
      "type": "function"
    },
    {
      "inputs": [
        {
          "internalType": "address",
          "name": "user",
          "type": "address"
        },
        {
          "internalType": "uint256",
          "name": "_tokenId",
          "type": "uint256"
        }
      ],
      "name": "claimReward",
      "outputs": [],
      "stateMutability": "nonpayable",
      "type": "function"
    },
    {
      "inputs": [
        {
          "internalType": "address",
          "name": "user",
          "type": "address"
        }
      ],
      "name": "getAllRewardedToken",
      "outputs": [
        {
          "internalType": "uint256",
          "name": "",
          "type": "uint256"
        }
      ],
      "stateMutability": "view",
      "type": "function"
    },
    {
      "inputs": [
        {
          "internalType": "address",
          "name": "user",
          "type": "address"
        },
        {
          "internalType": "uint256",
          "name": "tokenId",
          "type": "uint256"
        }
      ],
      "name": "getRewardedToken",
      "outputs": [
        {
          "internalType": "uint256",
          "name": "",
          "type": "uint256"
        }
      ],
      "stateMutability": "view",
      "type": "function"
    },
    {
      "inputs": [
        {
          "internalType": "address",
          "name": "user",
          "type": "address"
        }
      ],
      "name": "getStakedTokens",
      "outputs": [
        {
          "internalType": "uint256[]",
          "name": "tokenIds",
          "type": "uint256[]"
        }
      ],
      "stateMutability": "view",
      "type": "function"
    },
    {
      "inputs": [],
      "name": "owner",
      "outputs": [
        {
          "internalType": "address",
          "name": "",
          "type": "address"
        }
      ],
      "stateMutability": "view",
      "type": "function"
    },
    {
      "inputs": [],
      "name": "renounceOwnership",
      "outputs": [],
      "stateMutability": "nonpayable",
      "type": "function"
    },
    {
      "inputs": [
        {
          "internalType": "contract Chicks",
          "name": "chicksContract",
          "type": "address"
        }
      ],
      "name": "setChichsContract",
      "outputs": [],
      "stateMutability": "nonpayable",
      "type": "function"
    },
    {
      "inputs": [
        {
          "internalType": "contract Egg",
          "name": "eggContract",
          "type": "address"
        }
      ],
      "name": "setEggContract",
      "outputs": [],
      "stateMutability": "nonpayable",
      "type": "function"
    },
    {
      "inputs": [
        {
          "internalType": "uint256",
          "name": "_tokenId",
          "type": "uint256"
        }
      ],
      "name": "stake",
      "outputs": [],
      "stateMutability": "nonpayable",
      "type": "function"
    },
    {
      "inputs": [],
      "name": "toggleAllowClaiming",
      "outputs": [],
      "stateMutability": "nonpayable",
      "type": "function"
    },
    {
      "inputs": [],
      "name": "toggleAllowStaking",
      "outputs": [],
      "stateMutability": "nonpayable",
      "type": "function"
    },
    {
      "inputs": [
        {
          "internalType": "address",
          "name": "newOwner",
          "type": "address"
        }
      ],
      "name": "transferOwnership",
      "outputs": [],
      "stateMutability": "nonpayable",
      "type": "function"
    },
    {
      "inputs": [
        {
          "internalType": "address",
          "name": "user",
          "type": "address"
        },
        {
          "internalType": "uint256",
          "name": "_tokenId",
          "type": "uint256"
        }
      ],
      "name": "unstake",
      "outputs": [],
      "stateMutability": "nonpayable",
      "type": "function"
    }
  ],
  "bytecode": "0x608060405234801561001057600080fd5b506040516200149d3803806200149d833981016040819052610031916100be565b61003a3361006e565b600180546001600160a01b039283166001600160a01b0319918216179091556002805493909216921691909117905561010f565b600080546001600160a01b038381166001600160a01b0319831681178455604051919092169283917f8be0079c531659141344cd1fd0a4f28419497f9722a3daafe3b4186f6b6457e09190a35050565b600080604083850312156100d0578182fd5b82516100db816100f7565b60208401519092506100ec816100f7565b809150509250929050565b6001600160a01b038116811461010c57600080fd5b50565b61137e806200011f6000396000f3fe608060405234801561001057600080fd5b50600436106101215760003560e01c80639eed9ddc116100ad578063de73339711610071578063de7333971461024e578063dfde56f014610270578063e62f981414610283578063eb0cb0c314610290578063f2fde38b1461029857600080fd5b80639eed9ddc146101fa5780639fe836c91461020d578063a694fc3a14610220578063c2a672e014610233578063c9dd39a21461024657600080fd5b806363c28db1116100f457806363c28db114610187578063715018a6146101a757806377329f35146101af5780638da5cb5b146101c25780639d906a85146101e757600080fd5b806305c1ad2914610126578063174e31c41461014c57806318777867146101615780631fbea94814610174575b600080fd5b610139610134366004611143565b6102ab565b6040519081526020015b60405180910390f35b61015f61015a36600461117b565b610380565b005b61013961016f366004611143565b6103cb565b61015f610182366004611143565b610549565b61019a610195366004611143565b610595565b60405161014391906111be565b61015f610601565b61015f6101bd366004611143565b610637565b6000546001600160a01b03165b6040516001600160a01b039091168152602001610143565b6101396101f536600461117b565b61072c565b6002546101cf906001600160a01b031681565b6001546101cf906001600160a01b031681565b61015f61022e3660046111a6565b61083a565b61015f61024136600461117b565b610991565b61015f610a54565b60055461026090610100900460ff1681565b6040519015158152602001610143565b61015f61027e366004611143565b610a92565b6005546102609060ff1681565b61015f610ade565b61015f6102a6366004611143565b610b25565b6001600160a01b0381166000908152600460205260408120546102e95760405162461bcd60e51b81526004016102e090611202565b60405180910390fd5b6000805b6001600160a01b038416600090815260046020526040902054811015610379576001600160a01b0384166000908152600460205260409020805461035b9186918490811061034b57634e487b7160e01b600052603260045260246000fd5b906000526020600020015461072c565b6103659083611294565b91508061037181611302565b9150506102ed565b5092915050565b6001600160a01b0382163314806103a157506000546001600160a01b031633145b6103bd5760405162461bcd60e51b81526004016102e090611239565b6103c78282610bbd565b5050565b6001600160a01b0381166000908152600460205260408120546104005760405162461bcd60e51b81526004016102e090611202565b6000805b6001600160a01b038416600090815260046020526040902054811015610379576001600160a01b03841660009081526004602052604090208054600791908390811061046057634e487b7160e01b600052603260045260246000fd5b906000526020600020015410156104835761047c600383611294565b9150610537565b6001600160a01b0384166000908152600460205260409020805460339190839081106104bf57634e487b7160e01b600052603260045260246000fd5b906000526020600020015410156104db5761047c600283611294565b6001600160a01b0384166000908152600460205260409020805461271191908390811061051857634e487b7160e01b600052603260045260246000fd5b9060005260206000200154101561053757610534600183611294565b91505b8061054181611302565b915050610404565b6000546001600160a01b031633146105735760405162461bcd60e51b81526004016102e09061125f565b600180546001600160a01b0319166001600160a01b0392909216919091179055565b6001600160a01b0381166000908152600460209081526040918290208054835181840281018401909452808452606093928301828280156105f557602002820191906000526020600020905b8154815260200190600101908083116105e1575b50505050509050919050565b6000546001600160a01b0316331461062b5760405162461bcd60e51b81526004016102e09061125f565b6106356000610cf0565b565b6001600160a01b03811633148061065857506000546001600160a01b031633145b6106745760405162461bcd60e51b81526004016102e090611239565b6001600160a01b0381166000908152600460205260409020546106a95760405162461bcd60e51b81526004016102e090611202565b60005b6001600160a01b0382166000908152600460205260409020548110156103c7576001600160a01b0382166000908152600460205260409020805461071a9184918490811061070a57634e487b7160e01b600052603260045260246000fd5b9060005260206000200154610bbd565b8061072481611302565b9150506106ac565b6001600160a01b038216600090815260036020908152604080832084845290915281205461076c5760405162461bcd60e51b81526004016102e090611202565b6001600160a01b038316600090815260036020908152604080832085845290915281205415610833576001600160a01b0384166000908152600360209081526040808320868452909152812054906018603c806107c985426112eb565b6107d391906112ac565b6107dd91906112ac565b6107e791906112ac565b90506007851015610804576107fd8160036112cc565b9250610830565b6033851015610818576107fd8160026112cc565b6127118510156108305761082d8160016112cc565b92505b50505b9392505050565b60055460ff1661088c5760405162461bcd60e51b815260206004820152601d60248201527f5374616b696e672069732063757272656e746c792064697361626c656400000060448201526064016102e0565b600254604051630914a87160e41b81526004810183905233916001600160a01b03169063914a87109060240160206040518083038186803b1580156108d057600080fd5b505afa1580156108e4573d6000803e3d6000fd5b505050506040513d601f19601f82011682018060405250810190610908919061115f565b6001600160a01b0316148061092757506000546001600160a01b031633145b6109845760405162461bcd60e51b815260206004820152602860248201527f53656e646572206973206e6f74206f776e6572206f662063757272656e74204e604482015267232a103a37b5b2b760c11b60648201526084016102e0565b61098e3382610d40565b50565b6001600160a01b0382163314806109b257506000546001600160a01b031633145b6109ce5760405162461bcd60e51b81526004016102e090611239565b6001600160a01b03821660009081526003602090815260408083208484529091529020544210610a405760405162461bcd60e51b815260206004820152601f60248201527f53656e646572206d7573742068617665207374616b656420746f6b656e49440060448201526064016102e0565b610a4a8282610bbd565b6103c78282610e67565b6000546001600160a01b03163314610a7e5760405162461bcd60e51b81526004016102e09061125f565b6005805460ff19811660ff90911615179055565b6000546001600160a01b03163314610abc5760405162461bcd60e51b81526004016102e09061125f565b600280546001600160a01b0319166001600160a01b0392909216919091179055565b6000546001600160a01b03163314610b085760405162461bcd60e51b81526004016102e09061125f565b6005805461ff001981166101009182900460ff1615909102179055565b6000546001600160a01b03163314610b4f5760405162461bcd60e51b81526004016102e09061125f565b6001600160a01b038116610bb45760405162461bcd60e51b815260206004820152602660248201527f4f776e61626c653a206e6577206f776e657220697320746865207a65726f206160448201526564647265737360d01b60648201526084016102e0565b61098e81610cf0565b600554610100900460ff16610c145760405162461bcd60e51b815260206004820152601e60248201527f436c61696d696e672069732063757272656e746c792064697361626c6564000060448201526064016102e0565b6000610c20838361072c565b6001600160a01b0384811660008181526003602090815260408083208884529091529081902042905560015490516340c10f1960e01b81526004810192909252602482018490529293509116906340c10f1990604401600060405180830381600087803b158015610c9057600080fd5b505af1158015610ca4573d6000803e3d6000fd5b50505050826001600160a01b03167fe2403640ba68fed3a2f88b7557551d1993f84b99bb10ff833f0cf8db0c5e048682604051610ce391815260200190565b60405180910390a2505050565b600080546001600160a01b038381166001600160a01b0319831681178455604051919092169283917f8be0079c531659141344cd1fd0a4f28419497f9722a3daafe3b4186f6b6457e09190a35050565b6001600160a01b038216331480610d6157506000546001600160a01b031633145b610d7d5760405162461bcd60e51b81526004016102e090611239565b6002546040516323b872dd60e01b81526001600160a01b03848116600483015230602483015260448201849052909116906323b872dd90606401600060405180830381600087803b158015610dd157600080fd5b505af1158015610de5573d6000803e3d6000fd5b505050506001600160a01b0382166000818152600360209081526040808320858452825280832042905583835260048252808320805460018101825590845292829020909201849055815192835282018390527f9e71bc8eea02a63969f509818f2dafb9254532904319f9dbda79b67bd34a5f3d910160405180910390a15050565b6001600160a01b0382166000908152600360209081526040808320848452909152812081905580805b6001600160a01b038516600090815260046020526040902054811015610f16576001600160a01b0385166000908152600460205260409020805485919083908110610eeb57634e487b7160e01b600052603260045260246000fd5b90600052602060002001541415610f0457809150600192505b80610f0e81611302565b915050610e90565b5081610f645760405162461bcd60e51b815260206004820152601a60248201527f506c65617365207374616b65206e66742061742066697273742000000000000060448201526064016102e0565b805b6001600160a01b038516600090815260046020526040902054610f8b906001906112eb565b811015611040576001600160a01b0385166000908152600460205260409020610fb5826001611294565b81548110610fd357634e487b7160e01b600052603260045260246000fd5b906000526020600020015460046000876001600160a01b03166001600160a01b03168152602001908152602001600020828154811061102257634e487b7160e01b600052603260045260246000fd5b6000918252602090912001558061103881611302565b915050610f66565b506001600160a01b038416600090815260046020526040902080548061107657634e487b7160e01b600052603160045260246000fd5b6000828152602081206000199083018101919091550190556002546040516323b872dd60e01b81523060048201526001600160a01b03868116602483015260448201869052909116906323b872dd90606401600060405180830381600087803b1580156110e257600080fd5b505af11580156110f6573d6000803e3d6000fd5b5050604080516001600160a01b0388168152602081018790527f0f5bb82176feb1b5e747e28471aa92156a04d9f3ab9f45f28e2d704232b93f75935001905060405180910390a150505050565b600060208284031215611154578081fd5b813561083381611333565b600060208284031215611170578081fd5b815161083381611333565b6000806040838503121561118d578081fd5b823561119881611333565b946020939093013593505050565b6000602082840312156111b7578081fd5b5035919050565b6020808252825182820181905260009190848201906040850190845b818110156111f6578351835292840192918401916001016111da565b50909695505050505050565b6020808252601b908201527f53656e646572206d7573742068617665207374616b6564204e46540000000000604082015260600190565b6020808252600c908201526b2bb937b7339029b2b73232b960a11b604082015260600190565b6020808252818101527f4f776e61626c653a2063616c6c6572206973206e6f7420746865206f776e6572604082015260600190565b600082198211156112a7576112a761131d565b500190565b6000826112c757634e487b7160e01b81526012600452602481fd5b500490565b60008160001904831182151516156112e6576112e661131d565b500290565b6000828210156112fd576112fd61131d565b500390565b60006000198214156113165761131661131d565b5060010190565b634e487b7160e01b600052601160045260246000fd5b6001600160a01b038116811461098e57600080fdfea2646970667358221220856d5b6f1280bf2483f3201e5e8223c6c0b65bd5fda409bd1bc6fd9884c9f6b064736f6c63430008040033",
  "linkReferences": {},
  "deployedLinkReferences": {}
}