{
  "_format": "hh-sol-artifact-1",
  "contractName": "ChicksStaking",
  "sourceName": "contracts/ChicksStaking.sol",
  "abi": [
    {
      "inputs": [
        {
          "internalType": "address",
          "name": "_chicksAddress",
          "type": "address"
        },
        {
          "internalType": "address",
          "name": "_eggAddress",
          "type": "address"
        }
      ],
      "stateMutability": "nonpayable",
      "type": "constructor"
    },
    {
      "anonymous": false,
      "inputs": [
        {
          "indexed": true,
          "internalType": "address",
          "name": "previousOwner",
          "type": "address"
        },
        {
          "indexed": true,
          "internalType": "address",
          "name": "newOwner",
          "type": "address"
        }
      ],
      "name": "OwnershipTransferred",
      "type": "event"
    },
    {
      "anonymous": false,
      "inputs": [
        {
          "indexed": true,
          "internalType": "address",
          "name": "user",
          "type": "address"
        },
        {
          "indexed": false,
          "internalType": "uint256",
          "name": "reward",
          "type": "uint256"
        }
      ],
      "name": "RewardPaid",
      "type": "event"
    },
    {
      "anonymous": false,
      "inputs": [
        {
          "indexed": false,
          "internalType": "address",
          "name": "owner",
          "type": "address"
        },
        {
          "indexed": false,
          "internalType": "uint256",
          "name": "amount",
          "type": "uint256"
        }
      ],
      "name": "Staked",
      "type": "event"
    },
    {
      "anonymous": false,
      "inputs": [
        {
          "indexed": false,
          "internalType": "address",
          "name": "owner",
          "type": "address"
        },
        {
          "indexed": false,
          "internalType": "uint256",
          "name": "amount",
          "type": "uint256"
        }
      ],
      "name": "Unstaked",
      "type": "event"
    },
    {
      "inputs": [],
      "name": "_chicksAddress",
      "outputs": [
        {
          "internalType": "address",
          "name": "",
          "type": "address"
        }
      ],
      "stateMutability": "view",
      "type": "function"
    },
    {
      "inputs": [],
      "name": "_eggAddress",
      "outputs": [
        {
          "internalType": "address",
          "name": "",
          "type": "address"
        }
      ],
      "stateMutability": "view",
      "type": "function"
    },
    {
      "inputs": [],
      "name": "allowClaiming",
      "outputs": [
        {
          "internalType": "bool",
          "name": "",
          "type": "bool"
        }
      ],
      "stateMutability": "view",
      "type": "function"
    },
    {
      "inputs": [],
      "name": "allowStaking",
      "outputs": [
        {
          "internalType": "bool",
          "name": "",
          "type": "bool"
        }
      ],
      "stateMutability": "view",
      "type": "function"
    },
    {
      "inputs": [
        {
          "internalType": "address",
          "name": "user",
          "type": "address"
        }
      ],
      "name": "calcRewardPerDay",
      "outputs": [
        {
          "internalType": "uint256",
          "name": "",
          "type": "uint256"
        }
      ],
      "stateMutability": "view",
      "type": "function"
    },
    {
      "inputs": [
        {
          "internalType": "address",
          "name": "user",
          "type": "address"
        }
      ],
      "name": "claimAll",
      "outputs": [],
      "stateMutability": "nonpayable",
      "type": "function"
    },
    {
      "inputs": [
        {
          "internalType": "address",
          "name": "user",
          "type": "address"
        },
        {
          "internalType": "uint256",
          "name": "_tokenId",
          "type": "uint256"
        }
      ],
      "name": "claimReward",
      "outputs": [],
      "stateMutability": "nonpayable",
      "type": "function"
    },
    {
      "inputs": [],
      "name": "cycleTime",
      "outputs": [
        {
          "internalType": "uint256",
          "name": "",
          "type": "uint256"
        }
      ],
      "stateMutability": "view",
      "type": "function"
    },
    {
      "inputs": [
        {
          "internalType": "address",
          "name": "user",
          "type": "address"
        }
      ],
      "name": "getAllRewardedToken",
      "outputs": [
        {
          "internalType": "uint256",
          "name": "",
          "type": "uint256"
        }
      ],
      "stateMutability": "view",
      "type": "function"
    },
    {
      "inputs": [
        {
          "internalType": "address",
          "name": "user",
          "type": "address"
        },
        {
          "internalType": "uint256",
          "name": "tokenId",
          "type": "uint256"
        }
      ],
      "name": "getRewardedToken",
      "outputs": [
        {
          "internalType": "uint256",
          "name": "",
          "type": "uint256"
        }
      ],
      "stateMutability": "view",
      "type": "function"
    },
    {
      "inputs": [],
      "name": "getStakeUsers",
      "outputs": [
        {
          "internalType": "address[]",
          "name": "",
          "type": "address[]"
        }
      ],
      "stateMutability": "nonpayable",
      "type": "function"
    },
    {
      "inputs": [
        {
          "internalType": "address",
          "name": "user",
          "type": "address"
        }
      ],
      "name": "getStakedTokens",
      "outputs": [
        {
          "internalType": "uint256[]",
          "name": "tokenIds",
          "type": "uint256[]"
        }
      ],
      "stateMutability": "view",
      "type": "function"
    },
    {
      "inputs": [],
      "name": "owner",
      "outputs": [
        {
          "internalType": "address",
          "name": "",
          "type": "address"
        }
      ],
      "stateMutability": "view",
      "type": "function"
    },
    {
      "inputs": [],
      "name": "renounceOwnership",
      "outputs": [],
      "stateMutability": "nonpayable",
      "type": "function"
    },
    {
      "inputs": [
        {
          "internalType": "address",
          "name": "chicksAddress",
          "type": "address"
        }
      ],
      "name": "setChicksContract",
      "outputs": [],
      "stateMutability": "nonpayable",
      "type": "function"
    },
    {
      "inputs": [
        {
          "internalType": "address",
          "name": "eggAddress",
          "type": "address"
        }
      ],
      "name": "setEggContract",
      "outputs": [],
      "stateMutability": "nonpayable",
      "type": "function"
    },
    {
      "inputs": [
        {
          "internalType": "uint256",
          "name": "_tokenId",
          "type": "uint256"
        }
      ],
      "name": "stake",
      "outputs": [],
      "stateMutability": "nonpayable",
      "type": "function"
    },
    {
      "inputs": [
        {
          "internalType": "uint256[]",
          "name": "_tokenIds",
          "type": "uint256[]"
        }
      ],
      "name": "stakeArray",
      "outputs": [],
      "stateMutability": "nonpayable",
      "type": "function"
    },
    {
      "inputs": [
        {
          "internalType": "uint256",
          "name": "",
          "type": "uint256"
        }
      ],
      "name": "stakeUsers",
      "outputs": [
        {
          "internalType": "address",
          "name": "",
          "type": "address"
        }
      ],
      "stateMutability": "view",
      "type": "function"
    },
    {
      "inputs": [
        {
          "internalType": "address",
          "name": "",
          "type": "address"
        },
        {
          "internalType": "uint256",
          "name": "",
          "type": "uint256"
        }
      ],
      "name": "stakerToken",
      "outputs": [
        {
          "internalType": "uint256",
          "name": "",
          "type": "uint256"
        }
      ],
      "stateMutability": "view",
      "type": "function"
    },
    {
      "inputs": [
        {
          "internalType": "address",
          "name": "",
          "type": "address"
        },
        {
          "internalType": "uint256",
          "name": "",
          "type": "uint256"
        }
      ],
      "name": "stakers",
      "outputs": [
        {
          "internalType": "uint256",
          "name": "",
          "type": "uint256"
        }
      ],
      "stateMutability": "view",
      "type": "function"
    },
    {
      "inputs": [],
      "name": "toggleAllowClaiming",
      "outputs": [],
      "stateMutability": "nonpayable",
      "type": "function"
    },
    {
      "inputs": [],
      "name": "toggleAllowStaking",
      "outputs": [],
      "stateMutability": "nonpayable",
      "type": "function"
    },
    {
      "inputs": [
        {
          "internalType": "address",
          "name": "newOwner",
          "type": "address"
        }
      ],
      "name": "transferOwnership",
      "outputs": [],
      "stateMutability": "nonpayable",
      "type": "function"
    },
    {
      "inputs": [
        {
          "internalType": "address",
          "name": "user",
          "type": "address"
        },
        {
          "internalType": "uint256",
          "name": "_tokenId",
          "type": "uint256"
        }
      ],
      "name": "unstake",
      "outputs": [],
      "stateMutability": "nonpayable",
      "type": "function"
    },
    {
      "inputs": [
        {
          "internalType": "address",
          "name": "user",
          "type": "address"
        },
        {
          "internalType": "uint256[]",
          "name": "_tokenIds",
          "type": "uint256[]"
        }
      ],
      "name": "unstakeArray",
      "outputs": [],
      "stateMutability": "nonpayable",
      "type": "function"
    }
  ],
  "bytecode": "0x6080604052620151806008556009805461ffff19166101011790553480156200002757600080fd5b5060405162001d2638038062001d268339810160408190526200004a91620001d2565b620000553362000073565b6200006081620000c3565b6200006b826200013e565b505062000209565b600080546001600160a01b038381166001600160a01b0319831681178455604051919092169283917f8be0079c531659141344cd1fd0a4f28419497f9722a3daafe3b4186f6b6457e09190a35050565b6000546001600160a01b03163314620001125760405162461bcd60e51b8152602060048201819052602482015260008051602062001d0683398151915260448201526064015b60405180910390fd5b600180546001600160a01b039092166001600160a01b0319928316811790915560038054909216179055565b6000546001600160a01b03163314620001895760405162461bcd60e51b8152602060048201819052602482015260008051602062001d06833981519152604482015260640162000109565b600280546001600160a01b039092166001600160a01b0319928316811790915560048054909216179055565b80516001600160a01b0381168114620001cd57600080fd5b919050565b60008060408385031215620001e5578182fd5b620001f083620001b5565b91506200020060208401620001b5565b90509250929050565b611aed80620002196000396000f3fe608060405234801561001057600080fd5b506004361061018e5760003560e01c8063901af3e9116100de578063d708e2c111610097578063e62f981411610071578063e62f981414610376578063e8a6368214610383578063eb0cb0c314610396578063f2fde38b1461039e57600080fd5b8063d708e2c114610338578063de73339714610341578063dfb2a5411461036357600080fd5b8063901af3e9146102d15780639d906a85146102e4578063a694fc3a146102f7578063c2a672e01461030a578063c8b6cbf71461031d578063c9dd39a21461033057600080fd5b806363c28db11161014b5780637c4ef1bd116101255780637c4ef1bd1461026d57806383bcaa1e1461029857806386211933146102ab5780638da5cb5b146102c057600080fd5b806363c28db114610232578063715018a61461025257806377329f351461025a57600080fd5b806305c1ad2914610193578063174e31c4146101b957806318777867146101ce5780631fbea948146101e157806322e05b5c146101f45780634211fc1d1461021f575b600080fd5b6101a66101a13660046117ad565b6103b1565b6040519081526020015b60405180910390f35b6101cc6101c7366004611838565b610449565b005b6101a66101dc3660046117ad565b61049d565b6101cc6101ef3660046117ad565b6105e6565b600254610207906001600160a01b031681565b6040516001600160a01b0390911681526020016101b0565b6101cc61022d3660046117e5565b61063c565b6102456102403660046117ad565b610799565b6040516101b09190611928565b6101cc610805565b6101cc6102683660046117ad565b61083b565b6101a661027b366004611838565b600660209081526000928352604080842090915290825290205481565b6102076102a63660046118c3565b610960565b6102b361098a565b6040516101b091906118db565b6000546001600160a01b0316610207565b6101cc6102df3660046117ad565b610ac7565b6101a66102f2366004611838565b610b1d565b6101cc6103053660046118c3565b610bd9565b6101cc610318366004611838565b610cf1565b6101a661032b366004611838565b610db4565b6101cc610de5565b6101a660085481565b60095461035390610100900460ff1681565b60405190151581526020016101b0565b600154610207906001600160a01b031681565b6009546103539060ff1681565b6101cc610391366004611863565b610e23565b6101cc610faa565b6101cc6103ac3660046117ad565b610ff1565b600080805b6001600160a01b038416600090815260076020526040902054811015610442576001600160a01b038416600090815260076020526040902080546104249186918490811061041457634e487b7160e01b600052603260045260246000fd5b9060005260206000200154610b1d565b61042e9083611a03565b91508061043a81611a71565b9150506103b6565b5092915050565b6001600160a01b03821633148061046a57506000546001600160a01b031633145b61048f5760405162461bcd60e51b8152600401610486906119a8565b60405180910390fd5b6104998282611089565b5050565b600080805b6001600160a01b038416600090815260076020526040902054811015610442576001600160a01b03841660009081526007602081905260409091208054839081106104fd57634e487b7160e01b600052603260045260246000fd5b9060005260206000200154101561052057610519600383611a03565b91506105d4565b6001600160a01b03841660009081526007602052604090208054603391908390811061055c57634e487b7160e01b600052603260045260246000fd5b9060005260206000200154101561057857610519600283611a03565b6001600160a01b038416600090815260076020526040902080546127119190839081106105b557634e487b7160e01b600052603260045260246000fd5b906000526020600020015410156105d4576105d1600183611a03565b91505b806105de81611a71565b9150506104a2565b6000546001600160a01b031633146106105760405162461bcd60e51b8152600401610486906119ce565b600180546001600160a01b039092166001600160a01b0319928316811790915560038054909216179055565b6001600160a01b03831633148061065d57506000546001600160a01b031633145b6106795760405162461bcd60e51b8152600401610486906119a8565b60005b81811015610793576001600160a01b038416600090815260066020526040812042918585858181106106be57634e487b7160e01b600052603260045260246000fd5b90506020020135815260200190815260200160002054106107215760405162461bcd60e51b815260206004820152601f60248201527f53656e646572206d7573742068617665207374616b656420746f6b656e4944006044820152606401610486565b6107518484848481811061074557634e487b7160e01b600052603260045260246000fd5b90506020020135611089565b6107818484848481811061077557634e487b7160e01b600052603260045260246000fd5b905060200201356111bc565b8061078b81611a71565b91505061067c565b50505050565b6001600160a01b0381166000908152600760209081526040918290208054835181840281018401909452808452606093928301828280156107f957602002820191906000526020600020905b8154815260200190600101908083116107e5575b50505050509050919050565b6000546001600160a01b0316331461082f5760405162461bcd60e51b8152600401610486906119ce565b6108396000611499565b565b6001600160a01b03811633148061085c57506000546001600160a01b031633145b6108785760405162461bcd60e51b8152600401610486906119a8565b6001600160a01b0381166000908152600760205260409020546108dd5760405162461bcd60e51b815260206004820152601b60248201527f53656e646572206d7573742068617665207374616b6564204e465400000000006044820152606401610486565b60005b6001600160a01b038216600090815260076020526040902054811015610499576001600160a01b0382166000908152600760205260409020805461094e9184918490811061093e57634e487b7160e01b600052603260045260246000fd5b9060005260206000200154611089565b8061095881611a71565b9150506108e0565b6005818154811061097057600080fd5b6000918252602090912001546001600160a01b0316905081565b6060806000805b600554811015610abf5760076000600583815481106109c057634e487b7160e01b600052603260045260246000fd5b60009182526020808320909101546001600160a01b03168352820192909252604001902054610a285760058181548110610a0a57634e487b7160e01b600052603260045260246000fd5b600091825260209091200180546001600160a01b0319169055610aad565b60058181548110610a4957634e487b7160e01b600052603260045260246000fd5b9060005260206000200160009054906101000a90046001600160a01b0316838381518110610a8757634e487b7160e01b600052603260045260246000fd5b6001600160a01b039092166020928302919091019091015281610aa981611a71565b9250505b80610ab781611a71565b915050610991565b509092915050565b6000546001600160a01b03163314610af15760405162461bcd60e51b8152600401610486906119ce565b600280546001600160a01b039092166001600160a01b0319928316811790915560048054909216179055565b6001600160a01b0382166000908152600660209081526040808320848452909152812054819015610bd2576001600160a01b0384166000908152600660209081526040808320868452909152812054600854909190610b7c8342611a5a565b610b869190611a1b565b90506007851015610ba357610b9c816003611a3b565b9250610bcf565b6033851015610bb757610b9c816002611a3b565b612711851015610bcf57610bcc816001611a3b565b92505b50505b9392505050565b60095460ff16610c2b5760405162461bcd60e51b815260206004820152601d60248201527f5374616b696e672069732063757272656e746c792064697361626c65640000006044820152606401610486565b60048054604051630914a87160e41b815291820183905233916001600160a01b039091169063914a87109060240160206040518083038186803b158015610c7157600080fd5b505afa158015610c85573d6000803e3d6000fd5b505050506040513d601f19601f82011682018060405250810190610ca991906117c9565b6001600160a01b03161480610cc857506000546001600160a01b031633145b610ce45760405162461bcd60e51b815260040161048690611960565b610cee33826114e9565b50565b6001600160a01b038216331480610d1257506000546001600160a01b031633145b610d2e5760405162461bcd60e51b8152600401610486906119a8565b6001600160a01b03821660009081526006602090815260408083208484529091529020544211610da05760405162461bcd60e51b815260206004820152601f60248201527f53656e646572206d7573742068617665207374616b656420746f6b656e4944006044820152606401610486565b610daa8282611089565b61049982826111bc565b60076020528160005260406000208181548110610dd057600080fd5b90600052602060002001600091509150505481565b6000546001600160a01b03163314610e0f5760405162461bcd60e51b8152600401610486906119ce565b6009805460ff19811660ff90911615179055565b60095460ff16610e755760405162461bcd60e51b815260206004820152601d60248201527f5374616b696e672069732063757272656e746c792064697361626c65640000006044820152606401610486565b60005b81811015610fa55760045433906001600160a01b031663914a8710858585818110610eb357634e487b7160e01b600052603260045260246000fd5b905060200201356040518263ffffffff1660e01b8152600401610ed891815260200190565b60206040518083038186803b158015610ef057600080fd5b505afa158015610f04573d6000803e3d6000fd5b505050506040513d601f19601f82011682018060405250810190610f2891906117c9565b6001600160a01b03161480610f4757506000546001600160a01b031633145b610f635760405162461bcd60e51b815260040161048690611960565b610f9333848484818110610f8757634e487b7160e01b600052603260045260246000fd5b905060200201356114e9565b80610f9d81611a71565b915050610e78565b505050565b6000546001600160a01b03163314610fd45760405162461bcd60e51b8152600401610486906119ce565b6009805461ff001981166101009182900460ff1615909102179055565b6000546001600160a01b0316331461101b5760405162461bcd60e51b8152600401610486906119ce565b6001600160a01b0381166110805760405162461bcd60e51b815260206004820152602660248201527f4f776e61626c653a206e6577206f776e657220697320746865207a65726f206160448201526564647265737360d01b6064820152608401610486565b610cee81611499565b600954610100900460ff166110e05760405162461bcd60e51b815260206004820152601e60248201527f436c61696d696e672069732063757272656e746c792064697361626c656400006044820152606401610486565b60006110ec8383610b1d565b6001600160a01b0384811660008181526006602090815260408083208884529091529081902042905560035490516340c10f1960e01b81526004810192909252602482018490529293509116906340c10f1990604401600060405180830381600087803b15801561115c57600080fd5b505af1158015611170573d6000803e3d6000fd5b50505050826001600160a01b03167fe2403640ba68fed3a2f88b7557551d1993f84b99bb10ff833f0cf8db0c5e0486826040516111af91815260200190565b60405180910390a2505050565b6001600160a01b0382166000908152600660209081526040808320848452909152812081905580805b6001600160a01b03851660009081526007602052604090205481101561126b576001600160a01b038516600090815260076020526040902080548591908390811061124057634e487b7160e01b600052603260045260246000fd5b9060005260206000200154141561125957809150600192505b8061126381611a71565b9150506111e5565b50816112b95760405162461bcd60e51b815260206004820152601a60248201527f506c65617365207374616b65206e6674206174206669727374200000000000006044820152606401610486565b805b6001600160a01b0385166000908152600760205260409020546112e090600190611a5a565b811015611395576001600160a01b038516600090815260076020526040902061130a826001611a03565b8154811061132857634e487b7160e01b600052603260045260246000fd5b906000526020600020015460076000876001600160a01b03166001600160a01b03168152602001908152602001600020828154811061137757634e487b7160e01b600052603260045260246000fd5b6000918252602090912001558061138d81611a71565b9150506112bb565b506001600160a01b03841660009081526007602052604090208054806113cb57634e487b7160e01b600052603160045260246000fd5b600082815260208120600019908301810191909155019055600480546040516323b872dd60e01b815230928101929092526001600160a01b0386811660248401526044830186905216906323b872dd90606401600060405180830381600087803b15801561143857600080fd5b505af115801561144c573d6000803e3d6000fd5b5050604080516001600160a01b0388168152602081018790527f0f5bb82176feb1b5e747e28471aa92156a04d9f3ab9f45f28e2d704232b93f75935001905060405180910390a150505050565b600080546001600160a01b038381166001600160a01b0319831681178455604051919092169283917f8be0079c531659141344cd1fd0a4f28419497f9722a3daafe3b4186f6b6457e09190a35050565b6001600160a01b03821633148061150a57506000546001600160a01b031633145b6115265760405162461bcd60e51b8152600401610486906119a8565b6004805460405163e985e9c560e01b81526001600160a01b038581169382019390935230602482015291169063e985e9c59060440160206040518083038186803b15801561157357600080fd5b505afa158015611587573d6000803e3d6000fd5b505050506040513d601f19601f820116820180604052508101906115ab91906118a3565b50600480546040516323b872dd60e01b81526001600160a01b0385811693820193909352306024820152604481018490529116906323b872dd90606401600060405180830381600087803b15801561160257600080fd5b505af1158015611616573d6000803e3d6000fd5b50505050611623826116a1565b6001600160a01b0382166000818152600660209081526040808320858452825280832042905583835260078252808320805460018101825590845292829020909201849055815192835282018390527f9e71bc8eea02a63969f509818f2dafb9254532904319f9dbda79b67bd34a5f3d910160405180910390a15050565b6000805b60055481101561170c57826001600160a01b0316600582815481106116da57634e487b7160e01b600052603260045260246000fd5b6000918252602090912001546001600160a01b031614156116fa57600191505b8061170481611a71565b9150506116a5565b508061049957600580546001810182556000919091527f036b6384b5eca791c62761152d0c79bb0604c104a5fb6f4eb0703f3154bb3db00180546001600160a01b0384166001600160a01b03199091161790555050565b60008083601f840112611774578182fd5b50813567ffffffffffffffff81111561178b578182fd5b6020830191508360208260051b85010111156117a657600080fd5b9250929050565b6000602082840312156117be578081fd5b8135610bd281611aa2565b6000602082840312156117da578081fd5b8151610bd281611aa2565b6000806000604084860312156117f9578182fd5b833561180481611aa2565b9250602084013567ffffffffffffffff81111561181f578283fd5b61182b86828701611763565b9497909650939450505050565b6000806040838503121561184a578182fd5b823561185581611aa2565b946020939093013593505050565b60008060208385031215611875578182fd5b823567ffffffffffffffff81111561188b578283fd5b61189785828601611763565b90969095509350505050565b6000602082840312156118b4578081fd5b81518015158114610bd2578182fd5b6000602082840312156118d4578081fd5b5035919050565b6020808252825182820181905260009190848201906040850190845b8181101561191c5783516001600160a01b0316835292840192918401916001016118f7565b50909695505050505050565b6020808252825182820181905260009190848201906040850190845b8181101561191c57835183529284019291840191600101611944565b60208082526028908201527f53656e646572206973206e6f74206f776e6572206f662063757272656e74204e604082015267232a103a37b5b2b760c11b606082015260800190565b6020808252600c908201526b2bb937b7339029b2b73232b960a11b604082015260600190565b6020808252818101527f4f776e61626c653a2063616c6c6572206973206e6f7420746865206f776e6572604082015260600190565b60008219821115611a1657611a16611a8c565b500190565b600082611a3657634e487b7160e01b81526012600452602481fd5b500490565b6000816000190483118215151615611a5557611a55611a8c565b500290565b600082821015611a6c57611a6c611a8c565b500390565b6000600019821415611a8557611a85611a8c565b5060010190565b634e487b7160e01b600052601160045260246000fd5b6001600160a01b0381168114610cee57600080fdfea2646970667358221220847ffe86161f0e18bbfacb9d97567056b6a1c8e0008dd63d32f380b5a5bb589864736f6c634300080400334f776e61626c653a2063616c6c6572206973206e6f7420746865206f776e6572",
  "linkReferences": {},
  "deployedLinkReferences": {}
}