{
  "_format": "hh-sol-artifact-1",
  "contractName": "ChicksStaking",
  "sourceName": "contracts/ChicksStaking.sol",
  "abi": [
    {
      "inputs": [
        {
          "internalType": "address",
          "name": "_chicksAddress",
          "type": "address"
        },
        {
          "internalType": "address",
          "name": "_eggAddress",
          "type": "address"
        }
      ],
      "stateMutability": "nonpayable",
      "type": "constructor"
    },
    {
      "anonymous": false,
      "inputs": [
        {
          "indexed": true,
          "internalType": "address",
          "name": "previousOwner",
          "type": "address"
        },
        {
          "indexed": true,
          "internalType": "address",
          "name": "newOwner",
          "type": "address"
        }
      ],
      "name": "OwnershipTransferred",
      "type": "event"
    },
    {
      "anonymous": false,
      "inputs": [
        {
          "indexed": true,
          "internalType": "address",
          "name": "user",
          "type": "address"
        },
        {
          "indexed": false,
          "internalType": "uint256",
          "name": "reward",
          "type": "uint256"
        }
      ],
      "name": "RewardPaid",
      "type": "event"
    },
    {
      "anonymous": false,
      "inputs": [
        {
          "indexed": false,
          "internalType": "address",
          "name": "owner",
          "type": "address"
        },
        {
          "indexed": false,
          "internalType": "uint256",
          "name": "amount",
          "type": "uint256"
        }
      ],
      "name": "Staked",
      "type": "event"
    },
    {
      "anonymous": false,
      "inputs": [
        {
          "indexed": false,
          "internalType": "address",
          "name": "owner",
          "type": "address"
        },
        {
          "indexed": false,
          "internalType": "uint256",
          "name": "amount",
          "type": "uint256"
        }
      ],
      "name": "Unstaked",
      "type": "event"
    },
    {
      "inputs": [],
      "name": "_chicksAddress",
      "outputs": [
        {
          "internalType": "address",
          "name": "",
          "type": "address"
        }
      ],
      "stateMutability": "view",
      "type": "function"
    },
    {
      "inputs": [],
      "name": "_eggAddress",
      "outputs": [
        {
          "internalType": "address",
          "name": "",
          "type": "address"
        }
      ],
      "stateMutability": "view",
      "type": "function"
    },
    {
      "inputs": [],
      "name": "allowClaiming",
      "outputs": [
        {
          "internalType": "bool",
          "name": "",
          "type": "bool"
        }
      ],
      "stateMutability": "view",
      "type": "function"
    },
    {
      "inputs": [],
      "name": "allowStaking",
      "outputs": [
        {
          "internalType": "bool",
          "name": "",
          "type": "bool"
        }
      ],
      "stateMutability": "view",
      "type": "function"
    },
    {
      "inputs": [
        {
          "internalType": "address",
          "name": "user",
          "type": "address"
        }
      ],
      "name": "calcRewardPerDay",
      "outputs": [
        {
          "internalType": "uint256",
          "name": "",
          "type": "uint256"
        }
      ],
      "stateMutability": "view",
      "type": "function"
    },
    {
      "inputs": [
        {
          "internalType": "address",
          "name": "user",
          "type": "address"
        }
      ],
      "name": "claimAll",
      "outputs": [],
      "stateMutability": "nonpayable",
      "type": "function"
    },
    {
      "inputs": [
        {
          "internalType": "address",
          "name": "user",
          "type": "address"
        },
        {
          "internalType": "uint256",
          "name": "_tokenId",
          "type": "uint256"
        }
      ],
      "name": "claimReward",
      "outputs": [],
      "stateMutability": "nonpayable",
      "type": "function"
    },
    {
      "inputs": [],
      "name": "cycleTime",
      "outputs": [
        {
          "internalType": "uint256",
          "name": "",
          "type": "uint256"
        }
      ],
      "stateMutability": "view",
      "type": "function"
    },
    {
      "inputs": [
        {
          "internalType": "address",
          "name": "user",
          "type": "address"
        }
      ],
      "name": "getAllRewardedToken",
      "outputs": [
        {
          "internalType": "uint256",
          "name": "",
          "type": "uint256"
        }
      ],
      "stateMutability": "view",
      "type": "function"
    },
    {
      "inputs": [
        {
          "internalType": "address",
          "name": "user",
          "type": "address"
        },
        {
          "internalType": "uint256",
          "name": "tokenId",
          "type": "uint256"
        }
      ],
      "name": "getRewardedToken",
      "outputs": [
        {
          "internalType": "uint256",
          "name": "",
          "type": "uint256"
        }
      ],
      "stateMutability": "view",
      "type": "function"
    },
    {
      "inputs": [],
      "name": "getStakeUsers",
      "outputs": [
        {
          "internalType": "address[]",
          "name": "",
          "type": "address[]"
        }
      ],
      "stateMutability": "nonpayable",
      "type": "function"
    },
    {
      "inputs": [
        {
          "internalType": "address",
          "name": "user",
          "type": "address"
        }
      ],
      "name": "getStakedTokens",
      "outputs": [
        {
          "internalType": "uint256[]",
          "name": "tokenIds",
          "type": "uint256[]"
        }
      ],
      "stateMutability": "view",
      "type": "function"
    },
    {
      "inputs": [],
      "name": "owner",
      "outputs": [
        {
          "internalType": "address",
          "name": "",
          "type": "address"
        }
      ],
      "stateMutability": "view",
      "type": "function"
    },
    {
      "inputs": [],
      "name": "renounceOwnership",
      "outputs": [],
      "stateMutability": "nonpayable",
      "type": "function"
    },
    {
      "inputs": [
        {
          "internalType": "address",
          "name": "chicksAddress",
          "type": "address"
        }
      ],
      "name": "setChicksContract",
      "outputs": [],
      "stateMutability": "nonpayable",
      "type": "function"
    },
    {
      "inputs": [
        {
          "internalType": "address",
          "name": "eggAddress",
          "type": "address"
        }
      ],
      "name": "setEggContract",
      "outputs": [],
      "stateMutability": "nonpayable",
      "type": "function"
    },
    {
      "inputs": [
        {
          "internalType": "uint256",
          "name": "_tokenId",
          "type": "uint256"
        }
      ],
      "name": "stake",
      "outputs": [],
      "stateMutability": "nonpayable",
      "type": "function"
    },
    {
      "inputs": [
        {
          "internalType": "uint256",
          "name": "",
          "type": "uint256"
        }
      ],
      "name": "stakeUsers",
      "outputs": [
        {
          "internalType": "address",
          "name": "",
          "type": "address"
        }
      ],
      "stateMutability": "view",
      "type": "function"
    },
    {
      "inputs": [
        {
          "internalType": "address",
          "name": "",
          "type": "address"
        },
        {
          "internalType": "uint256",
          "name": "",
          "type": "uint256"
        }
      ],
      "name": "stakerToken",
      "outputs": [
        {
          "internalType": "uint256",
          "name": "",
          "type": "uint256"
        }
      ],
      "stateMutability": "view",
      "type": "function"
    },
    {
      "inputs": [
        {
          "internalType": "address",
          "name": "",
          "type": "address"
        },
        {
          "internalType": "uint256",
          "name": "",
          "type": "uint256"
        }
      ],
      "name": "stakers",
      "outputs": [
        {
          "internalType": "uint256",
          "name": "",
          "type": "uint256"
        }
      ],
      "stateMutability": "view",
      "type": "function"
    },
    {
      "inputs": [],
      "name": "toggleAllowClaiming",
      "outputs": [],
      "stateMutability": "nonpayable",
      "type": "function"
    },
    {
      "inputs": [],
      "name": "toggleAllowStaking",
      "outputs": [],
      "stateMutability": "nonpayable",
      "type": "function"
    },
    {
      "inputs": [
        {
          "internalType": "address",
          "name": "newOwner",
          "type": "address"
        }
      ],
      "name": "transferOwnership",
      "outputs": [],
      "stateMutability": "nonpayable",
      "type": "function"
    },
    {
      "inputs": [
        {
          "internalType": "address",
          "name": "user",
          "type": "address"
        },
        {
          "internalType": "uint256",
          "name": "_tokenId",
          "type": "uint256"
        }
      ],
      "name": "unstake",
      "outputs": [],
      "stateMutability": "nonpayable",
      "type": "function"
    }
  ],
  "bytecode": "0x6080604052603c6008556009805461ffff19166101011790553480156200002557600080fd5b5060405162001900380380620019008339810160408190526200004891620001d0565b620000533362000071565b6200005e81620000c1565b62000069826200013c565b505062000207565b600080546001600160a01b038381166001600160a01b0319831681178455604051919092169283917f8be0079c531659141344cd1fd0a4f28419497f9722a3daafe3b4186f6b6457e09190a35050565b6000546001600160a01b03163314620001105760405162461bcd60e51b81526020600482018190526024820152600080516020620018e083398151915260448201526064015b60405180910390fd5b600180546001600160a01b039092166001600160a01b0319928316811790915560038054909216179055565b6000546001600160a01b03163314620001875760405162461bcd60e51b81526020600482018190526024820152600080516020620018e0833981519152604482015260640162000107565b600280546001600160a01b039092166001600160a01b0319928316811790915560048054909216179055565b80516001600160a01b0381168114620001cb57600080fd5b919050565b60008060408385031215620001e3578182fd5b620001ee83620001b3565b9150620001fe60208401620001b3565b90509250929050565b6116c980620002176000396000f3fe608060405234801561001057600080fd5b50600436106101585760003560e01c8063901af3e9116100c3578063d708e2c11161007c578063d708e2c1146102ef578063de733397146102f8578063dfb2a5411461031a578063e62f98141461032d578063eb0cb0c31461033a578063f2fde38b1461034257600080fd5b8063901af3e9146102885780639d906a851461029b578063a694fc3a146102ae578063c2a672e0146102c1578063c8b6cbf7146102d4578063c9dd39a2146102e757600080fd5b8063715018a611610115578063715018a61461020957806377329f35146102115780637c4ef1bd1461022457806383bcaa1e1461024f57806386211933146102625780638da5cb5b1461027757600080fd5b806305c1ad291461015d578063174e31c41461018357806318777867146101985780631fbea948146101ab57806322e05b5c146101be57806363c28db1146101e9575b600080fd5b61017061016b366004611464565b610355565b6040519081526020015b60405180910390f35b61019661019136600461149c565b6103ed565b005b6101706101a6366004611464565b610441565b6101966101b9366004611464565b61058a565b6002546101d1906001600160a01b031681565b6040516001600160a01b03909116815260200161017a565b6101fc6101f7366004611464565b6105e0565b60405161017a919061154c565b61019661064c565b61019661021f366004611464565b610682565b61017061023236600461149c565b600660209081526000928352604080842090915290825290205481565b6101d161025d3660046114e7565b6107a7565b61026a6107d1565b60405161017a91906114ff565b6000546001600160a01b03166101d1565b610196610296366004611464565b61090e565b6101706102a936600461149c565b610964565b6101966102bc3660046114e7565b610a20565b6101966102cf36600461149c565b610b79565b6101706102e236600461149c565b610c3c565b610196610c6d565b61017060085481565b60095461030a90610100900460ff1681565b604051901515815260200161017a565b6001546101d1906001600160a01b031681565b60095461030a9060ff1681565b610196610cab565b610196610350366004611464565b610cf2565b600080805b6001600160a01b0384166000908152600760205260409020548110156103e6576001600160a01b038416600090815260076020526040902080546103c8918691849081106103b857634e487b7160e01b600052603260045260246000fd5b9060005260206000200154610964565b6103d290836115df565b9150806103de8161164d565b91505061035a565b5092915050565b6001600160a01b03821633148061040e57506000546001600160a01b031633145b6104335760405162461bcd60e51b815260040161042a90611584565b60405180910390fd5b61043d8282610d8a565b5050565b600080805b6001600160a01b0384166000908152600760205260409020548110156103e6576001600160a01b03841660009081526007602081905260409091208054839081106104a157634e487b7160e01b600052603260045260246000fd5b906000526020600020015410156104c4576104bd6003836115df565b9150610578565b6001600160a01b03841660009081526007602052604090208054603391908390811061050057634e487b7160e01b600052603260045260246000fd5b9060005260206000200154101561051c576104bd6002836115df565b6001600160a01b0384166000908152600760205260409020805461271191908390811061055957634e487b7160e01b600052603260045260246000fd5b90600052602060002001541015610578576105756001836115df565b91505b806105828161164d565b915050610446565b6000546001600160a01b031633146105b45760405162461bcd60e51b815260040161042a906115aa565b600180546001600160a01b039092166001600160a01b0319928316811790915560038054909216179055565b6001600160a01b03811660009081526007602090815260409182902080548351818402810184019094528084526060939283018282801561064057602002820191906000526020600020905b81548152602001906001019080831161062c575b50505050509050919050565b6000546001600160a01b031633146106765760405162461bcd60e51b815260040161042a906115aa565b6106806000610ebd565b565b6001600160a01b0381163314806106a357506000546001600160a01b031633145b6106bf5760405162461bcd60e51b815260040161042a90611584565b6001600160a01b0381166000908152600760205260409020546107245760405162461bcd60e51b815260206004820152601b60248201527f53656e646572206d7573742068617665207374616b6564204e46540000000000604482015260640161042a565b60005b6001600160a01b03821660009081526007602052604090205481101561043d576001600160a01b038216600090815260076020526040902080546107959184918490811061078557634e487b7160e01b600052603260045260246000fd5b9060005260206000200154610d8a565b8061079f8161164d565b915050610727565b600581815481106107b757600080fd5b6000918252602090912001546001600160a01b0316905081565b6060806000805b60055481101561090657600760006005838154811061080757634e487b7160e01b600052603260045260246000fd5b60009182526020808320909101546001600160a01b0316835282019290925260400190205461086f576005818154811061085157634e487b7160e01b600052603260045260246000fd5b600091825260209091200180546001600160a01b03191690556108f4565b6005818154811061089057634e487b7160e01b600052603260045260246000fd5b9060005260206000200160009054906101000a90046001600160a01b03168383815181106108ce57634e487b7160e01b600052603260045260246000fd5b6001600160a01b0390921660209283029190910190910152816108f08161164d565b9250505b806108fe8161164d565b9150506107d8565b509092915050565b6000546001600160a01b031633146109385760405162461bcd60e51b815260040161042a906115aa565b600280546001600160a01b039092166001600160a01b0319928316811790915560048054909216179055565b6001600160a01b0382166000908152600660209081526040808320848452909152812054819015610a19576001600160a01b03841660009081526006602090815260408083208684529091528120546008549091906109c38342611636565b6109cd91906115f7565b905060078510156109ea576109e3816003611617565b9250610a16565b60338510156109fe576109e3816002611617565b612711851015610a1657610a13816001611617565b92505b50505b9392505050565b60095460ff16610a725760405162461bcd60e51b815260206004820152601d60248201527f5374616b696e672069732063757272656e746c792064697361626c6564000000604482015260640161042a565b60048054604051630914a87160e41b815291820183905233916001600160a01b039091169063914a87109060240160206040518083038186803b158015610ab857600080fd5b505afa158015610acc573d6000803e3d6000fd5b505050506040513d601f19601f82011682018060405250810190610af09190611480565b6001600160a01b03161480610b0f57506000546001600160a01b031633145b610b6c5760405162461bcd60e51b815260206004820152602860248201527f53656e646572206973206e6f74206f776e6572206f662063757272656e74204e604482015267232a103a37b5b2b760c11b606482015260840161042a565b610b763382610f0d565b50565b6001600160a01b038216331480610b9a57506000546001600160a01b031633145b610bb65760405162461bcd60e51b815260040161042a90611584565b6001600160a01b03821660009081526006602090815260408083208484529091529020544211610c285760405162461bcd60e51b815260206004820152601f60248201527f53656e646572206d7573742068617665207374616b656420746f6b656e494400604482015260640161042a565b610c328282610d8a565b61043d82826110c5565b60076020528160005260406000208181548110610c5857600080fd5b90600052602060002001600091509150505481565b6000546001600160a01b03163314610c975760405162461bcd60e51b815260040161042a906115aa565b6009805460ff19811660ff90911615179055565b6000546001600160a01b03163314610cd55760405162461bcd60e51b815260040161042a906115aa565b6009805461ff001981166101009182900460ff1615909102179055565b6000546001600160a01b03163314610d1c5760405162461bcd60e51b815260040161042a906115aa565b6001600160a01b038116610d815760405162461bcd60e51b815260206004820152602660248201527f4f776e61626c653a206e6577206f776e657220697320746865207a65726f206160448201526564647265737360d01b606482015260840161042a565b610b7681610ebd565b600954610100900460ff16610de15760405162461bcd60e51b815260206004820152601e60248201527f436c61696d696e672069732063757272656e746c792064697361626c65640000604482015260640161042a565b6000610ded8383610964565b6001600160a01b0384811660008181526006602090815260408083208884529091529081902042905560035490516340c10f1960e01b81526004810192909252602482018490529293509116906340c10f1990604401600060405180830381600087803b158015610e5d57600080fd5b505af1158015610e71573d6000803e3d6000fd5b50505050826001600160a01b03167fe2403640ba68fed3a2f88b7557551d1993f84b99bb10ff833f0cf8db0c5e048682604051610eb091815260200190565b60405180910390a2505050565b600080546001600160a01b038381166001600160a01b0319831681178455604051919092169283917f8be0079c531659141344cd1fd0a4f28419497f9722a3daafe3b4186f6b6457e09190a35050565b6001600160a01b038216331480610f2e57506000546001600160a01b031633145b610f4a5760405162461bcd60e51b815260040161042a90611584565b6004805460405163e985e9c560e01b81526001600160a01b038581169382019390935230602482015291169063e985e9c59060440160206040518083038186803b158015610f9757600080fd5b505afa158015610fab573d6000803e3d6000fd5b505050506040513d601f19601f82011682018060405250810190610fcf91906114c7565b50600480546040516323b872dd60e01b81526001600160a01b0385811693820193909352306024820152604481018490529116906323b872dd90606401600060405180830381600087803b15801561102657600080fd5b505af115801561103a573d6000803e3d6000fd5b50505050611047826113a2565b6001600160a01b0382166000818152600660209081526040808320858452825280832042905583835260078252808320805460018101825590845292829020909201849055815192835282018390527f9e71bc8eea02a63969f509818f2dafb9254532904319f9dbda79b67bd34a5f3d910160405180910390a15050565b6001600160a01b0382166000908152600660209081526040808320848452909152812081905580805b6001600160a01b038516600090815260076020526040902054811015611174576001600160a01b038516600090815260076020526040902080548591908390811061114957634e487b7160e01b600052603260045260246000fd5b9060005260206000200154141561116257809150600192505b8061116c8161164d565b9150506110ee565b50816111c25760405162461bcd60e51b815260206004820152601a60248201527f506c65617365207374616b65206e667420617420666972737420000000000000604482015260640161042a565b805b6001600160a01b0385166000908152600760205260409020546111e990600190611636565b81101561129e576001600160a01b03851660009081526007602052604090206112138260016115df565b8154811061123157634e487b7160e01b600052603260045260246000fd5b906000526020600020015460076000876001600160a01b03166001600160a01b03168152602001908152602001600020828154811061128057634e487b7160e01b600052603260045260246000fd5b600091825260209091200155806112968161164d565b9150506111c4565b506001600160a01b03841660009081526007602052604090208054806112d457634e487b7160e01b600052603160045260246000fd5b600082815260208120600019908301810191909155019055600480546040516323b872dd60e01b815230928101929092526001600160a01b0386811660248401526044830186905216906323b872dd90606401600060405180830381600087803b15801561134157600080fd5b505af1158015611355573d6000803e3d6000fd5b5050604080516001600160a01b0388168152602081018790527f0f5bb82176feb1b5e747e28471aa92156a04d9f3ab9f45f28e2d704232b93f75935001905060405180910390a150505050565b6000805b60055481101561140d57826001600160a01b0316600582815481106113db57634e487b7160e01b600052603260045260246000fd5b6000918252602090912001546001600160a01b031614156113fb57600191505b806114058161164d565b9150506113a6565b508061043d57600580546001810182556000919091527f036b6384b5eca791c62761152d0c79bb0604c104a5fb6f4eb0703f3154bb3db00180546001600160a01b0384166001600160a01b03199091161790555050565b600060208284031215611475578081fd5b8135610a198161167e565b600060208284031215611491578081fd5b8151610a198161167e565b600080604083850312156114ae578081fd5b82356114b98161167e565b946020939093013593505050565b6000602082840312156114d8578081fd5b81518015158114610a19578182fd5b6000602082840312156114f8578081fd5b5035919050565b6020808252825182820181905260009190848201906040850190845b818110156115405783516001600160a01b03168352928401929184019160010161151b565b50909695505050505050565b6020808252825182820181905260009190848201906040850190845b8181101561154057835183529284019291840191600101611568565b6020808252600c908201526b2bb937b7339029b2b73232b960a11b604082015260600190565b6020808252818101527f4f776e61626c653a2063616c6c6572206973206e6f7420746865206f776e6572604082015260600190565b600082198211156115f2576115f2611668565b500190565b60008261161257634e487b7160e01b81526012600452602481fd5b500490565b600081600019048311821515161561163157611631611668565b500290565b60008282101561164857611648611668565b500390565b600060001982141561166157611661611668565b5060010190565b634e487b7160e01b600052601160045260246000fd5b6001600160a01b0381168114610b7657600080fdfea2646970667358221220fce086c3b2453e3b42d208353c471af33cc38adf483393ad76d339bfc754d4f164736f6c634300080400334f776e61626c653a2063616c6c6572206973206e6f7420746865206f776e6572",
  "linkReferences": {},
  "deployedLinkReferences": {}
}