{
  "_format": "hh-sol-artifact-1",
  "contractName": "ChicksStaking",
  "sourceName": "contracts/ChicksStaking.sol",
  "abi": [
    {
      "inputs": [
        {
          "internalType": "address",
          "name": "_chicksAddress",
          "type": "address"
        },
        {
          "internalType": "address",
          "name": "_eggAddress",
          "type": "address"
        }
      ],
      "stateMutability": "nonpayable",
      "type": "constructor"
    },
    {
      "anonymous": false,
      "inputs": [
        {
          "indexed": true,
          "internalType": "address",
          "name": "previousOwner",
          "type": "address"
        },
        {
          "indexed": true,
          "internalType": "address",
          "name": "newOwner",
          "type": "address"
        }
      ],
      "name": "OwnershipTransferred",
      "type": "event"
    },
    {
      "anonymous": false,
      "inputs": [
        {
          "indexed": true,
          "internalType": "address",
          "name": "user",
          "type": "address"
        },
        {
          "indexed": false,
          "internalType": "uint256",
          "name": "reward",
          "type": "uint256"
        }
      ],
      "name": "RewardPaid",
      "type": "event"
    },
    {
      "anonymous": false,
      "inputs": [
        {
          "indexed": false,
          "internalType": "address",
          "name": "owner",
          "type": "address"
        },
        {
          "indexed": false,
          "internalType": "uint256",
          "name": "amount",
          "type": "uint256"
        }
      ],
      "name": "Staked",
      "type": "event"
    },
    {
      "anonymous": false,
      "inputs": [
        {
          "indexed": false,
          "internalType": "address",
          "name": "owner",
          "type": "address"
        },
        {
          "indexed": false,
          "internalType": "uint256",
          "name": "amount",
          "type": "uint256"
        }
      ],
      "name": "Unstaked",
      "type": "event"
    },
    {
      "inputs": [],
      "name": "_chicksAddress",
      "outputs": [
        {
          "internalType": "address",
          "name": "",
          "type": "address"
        }
      ],
      "stateMutability": "view",
      "type": "function"
    },
    {
      "inputs": [],
      "name": "_eggAddress",
      "outputs": [
        {
          "internalType": "address",
          "name": "",
          "type": "address"
        }
      ],
      "stateMutability": "view",
      "type": "function"
    },
    {
      "inputs": [],
      "name": "allowClaiming",
      "outputs": [
        {
          "internalType": "bool",
          "name": "",
          "type": "bool"
        }
      ],
      "stateMutability": "view",
      "type": "function"
    },
    {
      "inputs": [],
      "name": "allowStaking",
      "outputs": [
        {
          "internalType": "bool",
          "name": "",
          "type": "bool"
        }
      ],
      "stateMutability": "view",
      "type": "function"
    },
    {
      "inputs": [
        {
          "internalType": "address",
          "name": "user",
          "type": "address"
        }
      ],
      "name": "calcRewardPerDay",
      "outputs": [
        {
          "internalType": "uint256",
          "name": "",
          "type": "uint256"
        }
      ],
      "stateMutability": "view",
      "type": "function"
    },
    {
      "inputs": [
        {
          "internalType": "address",
          "name": "user",
          "type": "address"
        }
      ],
      "name": "claimAll",
      "outputs": [],
      "stateMutability": "nonpayable",
      "type": "function"
    },
    {
      "inputs": [
        {
          "internalType": "address",
          "name": "user",
          "type": "address"
        },
        {
          "internalType": "uint256",
          "name": "_tokenId",
          "type": "uint256"
        }
      ],
      "name": "claimReward",
      "outputs": [],
      "stateMutability": "nonpayable",
      "type": "function"
    },
    {
      "inputs": [
        {
          "internalType": "address",
          "name": "user",
          "type": "address"
        }
      ],
      "name": "getAllRewardedToken",
      "outputs": [
        {
          "internalType": "uint256",
          "name": "",
          "type": "uint256"
        }
      ],
      "stateMutability": "view",
      "type": "function"
    },
    {
      "inputs": [
        {
          "internalType": "address",
          "name": "user",
          "type": "address"
        },
        {
          "internalType": "uint256",
          "name": "tokenId",
          "type": "uint256"
        }
      ],
      "name": "getRewardedToken",
      "outputs": [
        {
          "internalType": "uint256",
          "name": "",
          "type": "uint256"
        }
      ],
      "stateMutability": "view",
      "type": "function"
    },
    {
      "inputs": [
        {
          "internalType": "address",
          "name": "user",
          "type": "address"
        }
      ],
      "name": "getStakedTokens",
      "outputs": [
        {
          "internalType": "uint256[]",
          "name": "tokenIds",
          "type": "uint256[]"
        }
      ],
      "stateMutability": "view",
      "type": "function"
    },
    {
      "inputs": [],
      "name": "owner",
      "outputs": [
        {
          "internalType": "address",
          "name": "",
          "type": "address"
        }
      ],
      "stateMutability": "view",
      "type": "function"
    },
    {
      "inputs": [],
      "name": "renounceOwnership",
      "outputs": [],
      "stateMutability": "nonpayable",
      "type": "function"
    },
    {
      "inputs": [
        {
          "internalType": "address",
          "name": "chicksAddress",
          "type": "address"
        }
      ],
      "name": "setChicksContract",
      "outputs": [],
      "stateMutability": "nonpayable",
      "type": "function"
    },
    {
      "inputs": [
        {
          "internalType": "address",
          "name": "eggAddress",
          "type": "address"
        }
      ],
      "name": "setEggContract",
      "outputs": [],
      "stateMutability": "nonpayable",
      "type": "function"
    },
    {
      "inputs": [
        {
          "internalType": "uint256",
          "name": "_tokenId",
          "type": "uint256"
        }
      ],
      "name": "stake",
      "outputs": [],
      "stateMutability": "nonpayable",
      "type": "function"
    },
    {
      "inputs": [
        {
          "internalType": "address",
          "name": "",
          "type": "address"
        },
        {
          "internalType": "uint256",
          "name": "",
          "type": "uint256"
        }
      ],
      "name": "stakerToken",
      "outputs": [
        {
          "internalType": "uint256",
          "name": "",
          "type": "uint256"
        }
      ],
      "stateMutability": "view",
      "type": "function"
    },
    {
      "inputs": [
        {
          "internalType": "address",
          "name": "",
          "type": "address"
        },
        {
          "internalType": "uint256",
          "name": "",
          "type": "uint256"
        }
      ],
      "name": "stakers",
      "outputs": [
        {
          "internalType": "uint256",
          "name": "",
          "type": "uint256"
        }
      ],
      "stateMutability": "view",
      "type": "function"
    },
    {
      "inputs": [],
      "name": "toggleAllowClaiming",
      "outputs": [],
      "stateMutability": "nonpayable",
      "type": "function"
    },
    {
      "inputs": [],
      "name": "toggleAllowStaking",
      "outputs": [],
      "stateMutability": "nonpayable",
      "type": "function"
    },
    {
      "inputs": [
        {
          "internalType": "address",
          "name": "newOwner",
          "type": "address"
        }
      ],
      "name": "transferOwnership",
      "outputs": [],
      "stateMutability": "nonpayable",
      "type": "function"
    },
    {
      "inputs": [
        {
          "internalType": "address",
          "name": "user",
          "type": "address"
        },
        {
          "internalType": "uint256",
          "name": "_tokenId",
          "type": "uint256"
        }
      ],
      "name": "unstake",
      "outputs": [],
      "stateMutability": "nonpayable",
      "type": "function"
    }
  ],
  "bytecode": "0x60806040526007805461ffff19166101011790553480156200002057600080fd5b5060405162001634380380620016348339810160408190526200004391620001cb565b6200004e336200006c565b6200005981620000bc565b620000648262000137565b505062000202565b600080546001600160a01b038381166001600160a01b0319831681178455604051919092169283917f8be0079c531659141344cd1fd0a4f28419497f9722a3daafe3b4186f6b6457e09190a35050565b6000546001600160a01b031633146200010b5760405162461bcd60e51b815260206004820181905260248201526000805160206200161483398151915260448201526064015b60405180910390fd5b600180546001600160a01b039092166001600160a01b0319928316811790915560038054909216179055565b6000546001600160a01b03163314620001825760405162461bcd60e51b8152602060048201819052602482015260008051602062001614833981519152604482015260640162000102565b600280546001600160a01b039092166001600160a01b0319928316811790915560048054909216179055565b80516001600160a01b0381168114620001c657600080fd5b919050565b60008060408385031215620001de578182fd5b620001e983620001ae565b9150620001f960208401620001ae565b90509250929050565b61140280620002126000396000f3fe608060405234801561001057600080fd5b50600436106101375760003560e01c8063901af3e9116100b8578063c9dd39a21161007c578063c9dd39a21461029e578063de733397146102a6578063dfb2a541146102c8578063e62f9814146102db578063eb0cb0c3146102e8578063f2fde38b146102f057600080fd5b8063901af3e91461023f5780639d906a8514610252578063a694fc3a14610265578063c2a672e014610278578063c8b6cbf71461028b57600080fd5b806363c28db1116100ff57806363c28db1146101c8578063715018a6146101e857806377329f35146101f05780637c4ef1bd146102035780638da5cb5b1461022e57600080fd5b806305c1ad291461013c578063174e31c41461016257806318777867146101775780631fbea9481461018a57806322e05b5c1461019d575b600080fd5b61014f61014a3660046111de565b610303565b6040519081526020015b60405180910390f35b610175610170366004611216565b61039b565b005b61014f6101853660046111de565b6103ef565b6101756101983660046111de565b610539565b6002546101b0906001600160a01b031681565b6040516001600160a01b039091168152602001610159565b6101db6101d63660046111de565b61058f565b6040516101599190611279565b6101756105fb565b6101756101fe3660046111de565b610631565b61014f610211366004611216565b600560209081526000928352604080842090915290825290205481565b6000546001600160a01b03166101b0565b61017561024d3660046111de565b610756565b61014f610260366004611216565b6107ac565b610175610273366004611261565b610865565b610175610286366004611216565b6109be565b61014f610299366004611216565b610a81565b610175610ab2565b6007546102b890610100900460ff1681565b6040519015158152602001610159565b6001546101b0906001600160a01b031681565b6007546102b89060ff1681565b610175610af0565b6101756102fe3660046111de565b610b37565b600080805b6001600160a01b038416600090815260066020526040902054811015610394576001600160a01b038416600090815260066020526040902080546103769186918490811061036657634e487b7160e01b600052603260045260246000fd5b90600052602060002001546107ac565b6103809083611318565b91508061038c81611386565b915050610308565b5092915050565b6001600160a01b0382163314806103bc57506000546001600160a01b031633145b6103e15760405162461bcd60e51b81526004016103d8906112bd565b60405180910390fd5b6103eb8282610bcf565b5050565b600080805b6001600160a01b038416600090815260066020526040902054811015610394576001600160a01b03841660009081526006602052604090208054600791908390811061045057634e487b7160e01b600052603260045260246000fd5b906000526020600020015410156104735761046c600383611318565b9150610527565b6001600160a01b0384166000908152600660205260409020805460339190839081106104af57634e487b7160e01b600052603260045260246000fd5b906000526020600020015410156104cb5761046c600283611318565b6001600160a01b0384166000908152600660205260409020805461271191908390811061050857634e487b7160e01b600052603260045260246000fd5b9060005260206000200154101561052757610524600183611318565b91505b8061053181611386565b9150506103f4565b6000546001600160a01b031633146105635760405162461bcd60e51b81526004016103d8906112e3565b600180546001600160a01b039092166001600160a01b0319928316811790915560038054909216179055565b6001600160a01b0381166000908152600660209081526040918290208054835181840281018401909452808452606093928301828280156105ef57602002820191906000526020600020905b8154815260200190600101908083116105db575b50505050509050919050565b6000546001600160a01b031633146106255760405162461bcd60e51b81526004016103d8906112e3565b61062f6000610d02565b565b6001600160a01b03811633148061065257506000546001600160a01b031633145b61066e5760405162461bcd60e51b81526004016103d8906112bd565b6001600160a01b0381166000908152600660205260409020546106d35760405162461bcd60e51b815260206004820152601b60248201527f53656e646572206d7573742068617665207374616b6564204e4654000000000060448201526064016103d8565b60005b6001600160a01b0382166000908152600660205260409020548110156103eb576001600160a01b038216600090815260066020526040902080546107449184918490811061073457634e487b7160e01b600052603260045260246000fd5b9060005260206000200154610bcf565b8061074e81611386565b9150506106d6565b6000546001600160a01b031633146107805760405162461bcd60e51b81526004016103d8906112e3565b600280546001600160a01b039092166001600160a01b0319928316811790915560048054909216179055565b6001600160a01b038216600090815260056020908152604080832084845290915281205481901561085e576001600160a01b038416600090815260056020908152604080832086845290915281205490603c610808834261136f565b6108129190611330565b9050600785101561082f57610828816003611350565b925061085b565b603385101561084357610828816002611350565b61271185101561085b57610858816001611350565b92505b50505b9392505050565b60075460ff166108b75760405162461bcd60e51b815260206004820152601d60248201527f5374616b696e672069732063757272656e746c792064697361626c656400000060448201526064016103d8565b60048054604051630914a87160e41b815291820183905233916001600160a01b039091169063914a87109060240160206040518083038186803b1580156108fd57600080fd5b505afa158015610911573d6000803e3d6000fd5b505050506040513d601f19601f8201168201806040525081019061093591906111fa565b6001600160a01b0316148061095457506000546001600160a01b031633145b6109b15760405162461bcd60e51b815260206004820152602860248201527f53656e646572206973206e6f74206f776e6572206f662063757272656e74204e604482015267232a103a37b5b2b760c11b60648201526084016103d8565b6109bb3382610d52565b50565b6001600160a01b0382163314806109df57506000546001600160a01b031633145b6109fb5760405162461bcd60e51b81526004016103d8906112bd565b6001600160a01b03821660009081526005602090815260408083208484529091529020544211610a6d5760405162461bcd60e51b815260206004820152601f60248201527f53656e646572206d7573742068617665207374616b656420746f6b656e49440060448201526064016103d8565b610a778282610bcf565b6103eb8282610f01565b60066020528160005260406000208181548110610a9d57600080fd5b90600052602060002001600091509150505481565b6000546001600160a01b03163314610adc5760405162461bcd60e51b81526004016103d8906112e3565b6007805460ff19811660ff90911615179055565b6000546001600160a01b03163314610b1a5760405162461bcd60e51b81526004016103d8906112e3565b6007805461ff001981166101009182900460ff1615909102179055565b6000546001600160a01b03163314610b615760405162461bcd60e51b81526004016103d8906112e3565b6001600160a01b038116610bc65760405162461bcd60e51b815260206004820152602660248201527f4f776e61626c653a206e6577206f776e657220697320746865207a65726f206160448201526564647265737360d01b60648201526084016103d8565b6109bb81610d02565b600754610100900460ff16610c265760405162461bcd60e51b815260206004820152601e60248201527f436c61696d696e672069732063757272656e746c792064697361626c6564000060448201526064016103d8565b6000610c3283836107ac565b6001600160a01b0384811660008181526005602090815260408083208884529091529081902042905560035490516340c10f1960e01b81526004810192909252602482018490529293509116906340c10f1990604401600060405180830381600087803b158015610ca257600080fd5b505af1158015610cb6573d6000803e3d6000fd5b50505050826001600160a01b03167fe2403640ba68fed3a2f88b7557551d1993f84b99bb10ff833f0cf8db0c5e048682604051610cf591815260200190565b60405180910390a2505050565b600080546001600160a01b038381166001600160a01b0319831681178455604051919092169283917f8be0079c531659141344cd1fd0a4f28419497f9722a3daafe3b4186f6b6457e09190a35050565b6001600160a01b038216331480610d7357506000546001600160a01b031633145b610d8f5760405162461bcd60e51b81526004016103d8906112bd565b6004805460405163e985e9c560e01b81526001600160a01b038581169382019390935230602482015291169063e985e9c59060440160206040518083038186803b158015610ddc57600080fd5b505afa158015610df0573d6000803e3d6000fd5b505050506040513d601f19601f82011682018060405250810190610e149190611241565b50600480546040516323b872dd60e01b81526001600160a01b0385811693820193909352306024820152604481018490529116906323b872dd90606401600060405180830381600087803b158015610e6b57600080fd5b505af1158015610e7f573d6000803e3d6000fd5b505050506001600160a01b0382166000818152600560209081526040808320858452825280832042905583835260068252808320805460018101825590845292829020909201849055815192835282018390527f9e71bc8eea02a63969f509818f2dafb9254532904319f9dbda79b67bd34a5f3d910160405180910390a15050565b6001600160a01b0382166000908152600560209081526040808320848452909152812081905580805b6001600160a01b038516600090815260066020526040902054811015610fb0576001600160a01b0385166000908152600660205260409020805485919083908110610f8557634e487b7160e01b600052603260045260246000fd5b90600052602060002001541415610f9e57809150600192505b80610fa881611386565b915050610f2a565b5081610ffe5760405162461bcd60e51b815260206004820152601a60248201527f506c65617365207374616b65206e66742061742066697273742000000000000060448201526064016103d8565b805b6001600160a01b0385166000908152600660205260409020546110259060019061136f565b8110156110da576001600160a01b038516600090815260066020526040902061104f826001611318565b8154811061106d57634e487b7160e01b600052603260045260246000fd5b906000526020600020015460066000876001600160a01b03166001600160a01b0316815260200190815260200160002082815481106110bc57634e487b7160e01b600052603260045260246000fd5b600091825260209091200155806110d281611386565b915050611000565b506001600160a01b038416600090815260066020526040902080548061111057634e487b7160e01b600052603160045260246000fd5b600082815260208120600019908301810191909155019055600480546040516323b872dd60e01b815230928101929092526001600160a01b0386811660248401526044830186905216906323b872dd90606401600060405180830381600087803b15801561117d57600080fd5b505af1158015611191573d6000803e3d6000fd5b5050604080516001600160a01b0388168152602081018790527f0f5bb82176feb1b5e747e28471aa92156a04d9f3ab9f45f28e2d704232b93f75935001905060405180910390a150505050565b6000602082840312156111ef578081fd5b813561085e816113b7565b60006020828403121561120b578081fd5b815161085e816113b7565b60008060408385031215611228578081fd5b8235611233816113b7565b946020939093013593505050565b600060208284031215611252578081fd5b8151801515811461085e578182fd5b600060208284031215611272578081fd5b5035919050565b6020808252825182820181905260009190848201906040850190845b818110156112b157835183529284019291840191600101611295565b50909695505050505050565b6020808252600c908201526b2bb937b7339029b2b73232b960a11b604082015260600190565b6020808252818101527f4f776e61626c653a2063616c6c6572206973206e6f7420746865206f776e6572604082015260600190565b6000821982111561132b5761132b6113a1565b500190565b60008261134b57634e487b7160e01b81526012600452602481fd5b500490565b600081600019048311821515161561136a5761136a6113a1565b500290565b600082821015611381576113816113a1565b500390565b600060001982141561139a5761139a6113a1565b5060010190565b634e487b7160e01b600052601160045260246000fd5b6001600160a01b03811681146109bb57600080fdfea2646970667358221220d0e2be2218832a2be658a5bb72dcaafec62ee92ad33cf3c7be4aca3ae02cd19264736f6c634300080400334f776e61626c653a2063616c6c6572206973206e6f7420746865206f776e6572",
  "linkReferences": {},
  "deployedLinkReferences": {}
}