{
  "_format": "hh-sol-artifact-1",
  "contractName": "Chicks",
  "sourceName": "contracts/Chicks.sol",
  "abi": [
    {
      "inputs": [
        {
          "internalType": "string",
          "name": "_name",
          "type": "string"
        },
        {
          "internalType": "string",
          "name": "_symbol",
          "type": "string"
        },
        {
          "internalType": "string",
          "name": "_initBaseURI",
          "type": "string"
        }
      ],
      "stateMutability": "nonpayable",
      "type": "constructor"
    },
    {
      "anonymous": false,
      "inputs": [
        {
          "indexed": true,
          "internalType": "address",
          "name": "owner",
          "type": "address"
        },
        {
          "indexed": true,
          "internalType": "address",
          "name": "approved",
          "type": "address"
        },
        {
          "indexed": true,
          "internalType": "uint256",
          "name": "tokenId",
          "type": "uint256"
        }
      ],
      "name": "Approval",
      "type": "event"
    },
    {
      "anonymous": false,
      "inputs": [
        {
          "indexed": true,
          "internalType": "address",
          "name": "owner",
          "type": "address"
        },
        {
          "indexed": true,
          "internalType": "address",
          "name": "operator",
          "type": "address"
        },
        {
          "indexed": false,
          "internalType": "bool",
          "name": "approved",
          "type": "bool"
        }
      ],
      "name": "ApprovalForAll",
      "type": "event"
    },
    {
      "anonymous": false,
      "inputs": [
        {
          "indexed": true,
          "internalType": "address",
          "name": "previousOwner",
          "type": "address"
        },
        {
          "indexed": true,
          "internalType": "address",
          "name": "newOwner",
          "type": "address"
        }
      ],
      "name": "OwnershipTransferred",
      "type": "event"
    },
    {
      "anonymous": false,
      "inputs": [
        {
          "indexed": true,
          "internalType": "address",
          "name": "from",
          "type": "address"
        },
        {
          "indexed": true,
          "internalType": "address",
          "name": "to",
          "type": "address"
        },
        {
          "indexed": true,
          "internalType": "uint256",
          "name": "tokenId",
          "type": "uint256"
        }
      ],
      "name": "Transfer",
      "type": "event"
    },
    {
      "inputs": [],
      "name": "_name",
      "outputs": [
        {
          "internalType": "string",
          "name": "",
          "type": "string"
        }
      ],
      "stateMutability": "view",
      "type": "function"
    },
    {
      "inputs": [
        {
          "internalType": "uint256",
          "name": "",
          "type": "uint256"
        }
      ],
      "name": "_ownedTokens",
      "outputs": [
        {
          "internalType": "address",
          "name": "",
          "type": "address"
        }
      ],
      "stateMutability": "view",
      "type": "function"
    },
    {
      "inputs": [],
      "name": "_symbol",
      "outputs": [
        {
          "internalType": "string",
          "name": "",
          "type": "string"
        }
      ],
      "stateMutability": "view",
      "type": "function"
    },
    {
      "inputs": [
        {
          "internalType": "address",
          "name": "",
          "type": "address"
        }
      ],
      "name": "addressMintedBalance",
      "outputs": [
        {
          "internalType": "uint256",
          "name": "",
          "type": "uint256"
        }
      ],
      "stateMutability": "view",
      "type": "function"
    },
    {
      "inputs": [
        {
          "internalType": "address",
          "name": "to",
          "type": "address"
        },
        {
          "internalType": "uint256",
          "name": "tokenId",
          "type": "uint256"
        }
      ],
      "name": "approve",
      "outputs": [],
      "stateMutability": "nonpayable",
      "type": "function"
    },
    {
      "inputs": [
        {
          "internalType": "address",
          "name": "owner",
          "type": "address"
        }
      ],
      "name": "balanceOf",
      "outputs": [
        {
          "internalType": "uint256",
          "name": "",
          "type": "uint256"
        }
      ],
      "stateMutability": "view",
      "type": "function"
    },
    {
      "inputs": [],
      "name": "baseExtension",
      "outputs": [
        {
          "internalType": "string",
          "name": "",
          "type": "string"
        }
      ],
      "stateMutability": "view",
      "type": "function"
    },
    {
      "inputs": [],
      "name": "baseURI",
      "outputs": [
        {
          "internalType": "string",
          "name": "",
          "type": "string"
        }
      ],
      "stateMutability": "view",
      "type": "function"
    },
    {
      "inputs": [],
      "name": "cost",
      "outputs": [
        {
          "internalType": "uint256",
          "name": "",
          "type": "uint256"
        }
      ],
      "stateMutability": "view",
      "type": "function"
    },
    {
      "inputs": [
        {
          "internalType": "uint256",
          "name": "tokenId",
          "type": "uint256"
        }
      ],
      "name": "getApproved",
      "outputs": [
        {
          "internalType": "address",
          "name": "",
          "type": "address"
        }
      ],
      "stateMutability": "view",
      "type": "function"
    },
    {
      "inputs": [
        {
          "internalType": "uint256",
          "name": "tokenId",
          "type": "uint256"
        }
      ],
      "name": "getNFTUser",
      "outputs": [
        {
          "internalType": "address",
          "name": "",
          "type": "address"
        }
      ],
      "stateMutability": "view",
      "type": "function"
    },
    {
      "inputs": [],
      "name": "getRemainCollections",
      "outputs": [
        {
          "internalType": "uint256",
          "name": "",
          "type": "uint256"
        }
      ],
      "stateMutability": "view",
      "type": "function"
    },
    {
      "inputs": [],
      "name": "getRemainNFTforUser",
      "outputs": [
        {
          "internalType": "uint256",
          "name": "",
          "type": "uint256"
        }
      ],
      "stateMutability": "view",
      "type": "function"
    },
    {
      "inputs": [
        {
          "internalType": "address",
          "name": "owner",
          "type": "address"
        },
        {
          "internalType": "address",
          "name": "operator",
          "type": "address"
        }
      ],
      "name": "isApprovedForAll",
      "outputs": [
        {
          "internalType": "bool",
          "name": "",
          "type": "bool"
        }
      ],
      "stateMutability": "view",
      "type": "function"
    },
    {
      "inputs": [],
      "name": "isPaused",
      "outputs": [
        {
          "internalType": "uint256",
          "name": "",
          "type": "uint256"
        }
      ],
      "stateMutability": "view",
      "type": "function"
    },
    {
      "inputs": [
        {
          "internalType": "address",
          "name": "_user",
          "type": "address"
        }
      ],
      "name": "isWhitelisted",
      "outputs": [
        {
          "internalType": "bool",
          "name": "",
          "type": "bool"
        }
      ],
      "stateMutability": "view",
      "type": "function"
    },
    {
      "inputs": [],
      "name": "maxMintAmount",
      "outputs": [
        {
          "internalType": "uint256",
          "name": "",
          "type": "uint256"
        }
      ],
      "stateMutability": "view",
      "type": "function"
    },
    {
      "inputs": [],
      "name": "maxSupply",
      "outputs": [
        {
          "internalType": "uint256",
          "name": "",
          "type": "uint256"
        }
      ],
      "stateMutability": "view",
      "type": "function"
    },
    {
      "inputs": [],
      "name": "metaDataFolder",
      "outputs": [
        {
          "internalType": "string",
          "name": "",
          "type": "string"
        }
      ],
      "stateMutability": "view",
      "type": "function"
    },
    {
      "inputs": [
        {
          "internalType": "address",
          "name": "_to",
          "type": "address"
        },
        {
          "internalType": "uint256",
          "name": "_mintAmount",
          "type": "uint256"
        }
      ],
      "name": "mint",
      "outputs": [],
      "stateMutability": "payable",
      "type": "function"
    },
    {
      "inputs": [],
      "name": "name",
      "outputs": [
        {
          "internalType": "string",
          "name": "",
          "type": "string"
        }
      ],
      "stateMutability": "view",
      "type": "function"
    },
    {
      "inputs": [],
      "name": "nftPerAddressLimit",
      "outputs": [
        {
          "internalType": "uint256",
          "name": "",
          "type": "uint256"
        }
      ],
      "stateMutability": "view",
      "type": "function"
    },
    {
      "inputs": [],
      "name": "notRevealedUri",
      "outputs": [
        {
          "internalType": "string",
          "name": "",
          "type": "string"
        }
      ],
      "stateMutability": "view",
      "type": "function"
    },
    {
      "inputs": [],
      "name": "onlyWhitelisted",
      "outputs": [
        {
          "internalType": "uint256",
          "name": "",
          "type": "uint256"
        }
      ],
      "stateMutability": "view",
      "type": "function"
    },
    {
      "inputs": [],
      "name": "owner",
      "outputs": [
        {
          "internalType": "address",
          "name": "",
          "type": "address"
        }
      ],
      "stateMutability": "view",
      "type": "function"
    },
    {
      "inputs": [
        {
          "internalType": "uint256",
          "name": "tokenId",
          "type": "uint256"
        }
      ],
      "name": "ownerOf",
      "outputs": [
        {
          "internalType": "address",
          "name": "",
          "type": "address"
        }
      ],
      "stateMutability": "view",
      "type": "function"
    },
    {
      "inputs": [
        {
          "internalType": "bool",
          "name": "_state",
          "type": "bool"
        }
      ],
      "name": "pause",
      "outputs": [],
      "stateMutability": "nonpayable",
      "type": "function"
    },
    {
      "inputs": [],
      "name": "paused",
      "outputs": [
        {
          "internalType": "uint256",
          "name": "",
          "type": "uint256"
        }
      ],
      "stateMutability": "view",
      "type": "function"
    },
    {
      "inputs": [],
      "name": "remainTokenAmount",
      "outputs": [
        {
          "internalType": "uint256",
          "name": "",
          "type": "uint256"
        }
      ],
      "stateMutability": "view",
      "type": "function"
    },
    {
      "inputs": [],
      "name": "renounceOwnership",
      "outputs": [],
      "stateMutability": "nonpayable",
      "type": "function"
    },
    {
      "inputs": [],
      "name": "reveal",
      "outputs": [],
      "stateMutability": "nonpayable",
      "type": "function"
    },
    {
      "inputs": [],
      "name": "revealed",
      "outputs": [
        {
          "internalType": "uint256",
          "name": "",
          "type": "uint256"
        }
      ],
      "stateMutability": "view",
      "type": "function"
    },
    {
      "inputs": [
        {
          "internalType": "address",
          "name": "from",
          "type": "address"
        },
        {
          "internalType": "address",
          "name": "to",
          "type": "address"
        },
        {
          "internalType": "uint256",
          "name": "tokenId",
          "type": "uint256"
        }
      ],
      "name": "safeTransferFrom",
      "outputs": [],
      "stateMutability": "nonpayable",
      "type": "function"
    },
    {
      "inputs": [
        {
          "internalType": "address",
          "name": "from",
          "type": "address"
        },
        {
          "internalType": "address",
          "name": "to",
          "type": "address"
        },
        {
          "internalType": "uint256",
          "name": "tokenId",
          "type": "uint256"
        },
        {
          "internalType": "bytes",
          "name": "_data",
          "type": "bytes"
        }
      ],
      "name": "safeTransferFrom",
      "outputs": [],
      "stateMutability": "nonpayable",
      "type": "function"
    },
    {
      "inputs": [
        {
          "internalType": "address",
          "name": "operator",
          "type": "address"
        },
        {
          "internalType": "bool",
          "name": "approved",
          "type": "bool"
        }
      ],
      "name": "setApprovalForAll",
      "outputs": [],
      "stateMutability": "nonpayable",
      "type": "function"
    },
    {
      "inputs": [
        {
          "internalType": "string",
          "name": "_newBaseExtension",
          "type": "string"
        }
      ],
      "name": "setBaseExtension",
      "outputs": [],
      "stateMutability": "nonpayable",
      "type": "function"
    },
    {
      "inputs": [
        {
          "internalType": "string",
          "name": "_newBaseURI",
          "type": "string"
        }
      ],
      "name": "setBaseURI",
      "outputs": [],
      "stateMutability": "nonpayable",
      "type": "function"
    },
    {
      "inputs": [
        {
          "internalType": "uint256",
          "name": "_newCost",
          "type": "uint256"
        }
      ],
      "name": "setCost",
      "outputs": [],
      "stateMutability": "nonpayable",
      "type": "function"
    },
    {
      "inputs": [
        {
          "internalType": "uint256",
          "name": "_limit",
          "type": "uint256"
        }
      ],
      "name": "setNftPerAddressLimit",
      "outputs": [],
      "stateMutability": "nonpayable",
      "type": "function"
    },
    {
      "inputs": [
        {
          "internalType": "string",
          "name": "_notRevealedURI",
          "type": "string"
        }
      ],
      "name": "setNotRevealedURI",
      "outputs": [],
      "stateMutability": "nonpayable",
      "type": "function"
    },
    {
      "inputs": [
        {
          "internalType": "uint256",
          "name": "_state",
          "type": "uint256"
        }
      ],
      "name": "setOnlyWhitelisted",
      "outputs": [],
      "stateMutability": "nonpayable",
      "type": "function"
    },
    {
      "inputs": [
        {
          "internalType": "uint256",
          "name": "_newmaxMintAmount",
          "type": "uint256"
        }
      ],
      "name": "setmaxMintAmount",
      "outputs": [],
      "stateMutability": "nonpayable",
      "type": "function"
    },
    {
      "inputs": [
        {
          "internalType": "bytes4",
          "name": "interfaceId",
          "type": "bytes4"
        }
      ],
      "name": "supportsInterface",
      "outputs": [
        {
          "internalType": "bool",
          "name": "",
          "type": "bool"
        }
      ],
      "stateMutability": "view",
      "type": "function"
    },
    {
      "inputs": [],
      "name": "symbol",
      "outputs": [
        {
          "internalType": "string",
          "name": "",
          "type": "string"
        }
      ],
      "stateMutability": "view",
      "type": "function"
    },
    {
      "inputs": [
        {
          "internalType": "uint256",
          "name": "index",
          "type": "uint256"
        }
      ],
      "name": "tokenByIndex",
      "outputs": [
        {
          "internalType": "uint256",
          "name": "",
          "type": "uint256"
        }
      ],
      "stateMutability": "view",
      "type": "function"
    },
    {
      "inputs": [
        {
          "internalType": "address",
          "name": "owner",
          "type": "address"
        },
        {
          "internalType": "uint256",
          "name": "index",
          "type": "uint256"
        }
      ],
      "name": "tokenOfOwnerByIndex",
      "outputs": [
        {
          "internalType": "uint256",
          "name": "",
          "type": "uint256"
        }
      ],
      "stateMutability": "view",
      "type": "function"
    },
    {
      "inputs": [
        {
          "internalType": "uint256",
          "name": "tokenId",
          "type": "uint256"
        }
      ],
      "name": "tokenURI",
      "outputs": [
        {
          "internalType": "string",
          "name": "",
          "type": "string"
        }
      ],
      "stateMutability": "view",
      "type": "function"
    },
    {
      "inputs": [],
      "name": "totalSupply",
      "outputs": [
        {
          "internalType": "uint256",
          "name": "",
          "type": "uint256"
        }
      ],
      "stateMutability": "view",
      "type": "function"
    },
    {
      "inputs": [
        {
          "internalType": "address",
          "name": "from",
          "type": "address"
        },
        {
          "internalType": "address",
          "name": "to",
          "type": "address"
        },
        {
          "internalType": "uint256",
          "name": "tokenId",
          "type": "uint256"
        }
      ],
      "name": "transferFrom",
      "outputs": [],
      "stateMutability": "nonpayable",
      "type": "function"
    },
    {
      "inputs": [
        {
          "internalType": "address",
          "name": "newOwner",
          "type": "address"
        }
      ],
      "name": "transferOwnership",
      "outputs": [],
      "stateMutability": "nonpayable",
      "type": "function"
    },
    {
      "inputs": [
        {
          "internalType": "address",
          "name": "_owner",
          "type": "address"
        }
      ],
      "name": "walletOfOwner",
      "outputs": [
        {
          "internalType": "uint256[]",
          "name": "",
          "type": "uint256[]"
        }
      ],
      "stateMutability": "view",
      "type": "function"
    },
    {
      "inputs": [
        {
          "internalType": "address[]",
          "name": "_users",
          "type": "address[]"
        }
      ],
      "name": "whitelistUsers",
      "outputs": [],
      "stateMutability": "nonpayable",
      "type": "function"
    },
    {
      "inputs": [
        {
          "internalType": "uint256",
          "name": "",
          "type": "uint256"
        }
      ],
      "name": "whitelistedAddresses",
      "outputs": [
        {
          "internalType": "address",
          "name": "",
          "type": "address"
        }
      ],
      "stateMutability": "view",
      "type": "function"
    },
    {
      "inputs": [],
      "name": "withdraw",
      "outputs": [],
      "stateMutability": "payable",
      "type": "function"
    }
  ],
  "bytecode": "0x60c06040526005608081905264173539b7b760d91b60a09081526200002891600e9190620001f9565b506040805160208101918290526000908190526200004991600f91620001f9565b506040805160208101918290526000908190526200006a91601091620001f9565b5066b147c91e4ac0006013556127106014556126de60155560646016556064601755600060185560016019556000601a55348015620000a857600080fd5b506040516200336138038062003361833981016040819052620000cb9162000352565b825183908390620000e4906000906020850190620001f9565b508051620000fa906001906020840190620001f9565b50505062000117620001116200012b60201b60201c565b6200012f565b620001228162000181565b50505062000432565b3390565b600a80546001600160a01b038381166001600160a01b0319831681179093556040519116919082907f8be0079c531659141344cd1fd0a4f28419497f9722a3daafe3b4186f6b6457e090600090a35050565b600a546001600160a01b03163314620001e05760405162461bcd60e51b815260206004820181905260248201527f4f776e61626c653a2063616c6c6572206973206e6f7420746865206f776e6572604482015260640160405180910390fd5b8051620001f590600d906020840190620001f9565b5050565b8280546200020790620003df565b90600052602060002090601f0160209004810192826200022b576000855562000276565b82601f106200024657805160ff191683800117855562000276565b8280016001018555821562000276579182015b828111156200027657825182559160200191906001019062000259565b506200028492915062000288565b5090565b5b8082111562000284576000815560010162000289565b600082601f830112620002b0578081fd5b81516001600160401b0380821115620002cd57620002cd6200041c565b604051601f8301601f19908116603f01168101908282118183101715620002f857620002f86200041c565b8160405283815260209250868385880101111562000314578485fd5b8491505b8382101562000337578582018301518183018401529082019062000318565b838211156200034857848385830101525b9695505050505050565b60008060006060848603121562000367578283fd5b83516001600160401b03808211156200037e578485fd5b6200038c878388016200029f565b94506020860151915080821115620003a2578384fd5b620003b0878388016200029f565b93506040860151915080821115620003c6578283fd5b50620003d5868287016200029f565b9150509250925092565b600181811c90821680620003f457607f821691505b602082108114156200041657634e487b7160e01b600052602260045260246000fd5b50919050565b634e487b7160e01b600052604160045260246000fd5b612f1f80620004426000396000f3fe6080604052600436106103355760003560e01c8063743cc26a116101ab578063ba4e5c49116100f7578063d28d885211610095578063e985e9c51161006f578063e985e9c5146108df578063edec5f2714610928578063f2c4ce1e14610948578063f2fde38b1461096857600080fd5b8063d28d885214610894578063d5abeb01146108a9578063da3ef23f146108bf57600080fd5b8063c6682862116100d1578063c668286214610829578063c7873b831461083e578063c87b56dd14610854578063d0eb26b01461087457600080fd5b8063ba4e5c49146107d3578063ba7d2c76146107f3578063c5f9816b1461080957600080fd5b80639c70b51211610164578063b09f12661161013e578063b09f126614610753578063b10b57e014610768578063b187bd261461079e578063b88d4fde146107b357600080fd5b80639c70b51214610708578063a22cb4651461071e578063a475b5dd1461073e57600080fd5b8063743cc26a1461066b5780637f00c7a6146106805780638da5cb5b146106a0578063914a8710146106be5780639502743d146106de57806395d89b41146106f357600080fd5b80633af32abf1161028557806351830227116102235780636352211e116101fd5780636352211e146106015780636c0360eb1461062157806370a0823114610636578063715018a61461065657600080fd5b806351830227146105b557806355f804b3146105cb5780635c975abb146105eb57600080fd5b806342842e0e1161025f57806342842e0e14610528578063438b63001461054857806344a0d68a146105755780634f6ccce71461059557600080fd5b80633af32abf146104ed5780633ccfd60b1461050d57806340c10f191461051557600080fd5b8063095ea7b3116102f257806318cae269116102cc57806318cae2691461046a578063239c70ae1461049757806323b872dd146104ad5780632f745c59146104cd57600080fd5b8063095ea7b31461041f57806313faede61461043f57806318160ddd1461045557600080fd5b806301ffc9a71461033a57806302329a291461036f57806302fcb7af1461039157806306fdde03146103b0578063081812fc146103d2578063081c8c441461040a575b600080fd5b34801561034657600080fd5b5061035a610355366004612a92565b610988565b60405190151581526020015b60405180910390f35b34801561037b57600080fd5b5061038f61038a366004612a78565b6109b3565b005b34801561039d57600080fd5b506015545b604051908152602001610366565b3480156103bc57600080fd5b506103c56109fd565b6040516103669190612c97565b3480156103de57600080fd5b506103f26103ed366004612b10565b610a8f565b6040516001600160a01b039091168152602001610366565b34801561041657600080fd5b506103c5610b24565b34801561042b57600080fd5b5061038f61043a3660046129df565b610bb2565b34801561044b57600080fd5b506103a260135481565b34801561046157600080fd5b506008546103a2565b34801561047657600080fd5b506103a26104853660046128af565b601c6020526000908152604090205481565b3480156104a357600080fd5b506103a260165481565b3480156104b957600080fd5b5061038f6104c8366004612902565b610cc8565b3480156104d957600080fd5b506103a26104e83660046129df565b610cf9565b3480156104f957600080fd5b5061035a6105083660046128af565b610d8f565b61038f610e07565b61038f6105233660046129df565b610f23565b34801561053457600080fd5b5061038f610543366004612902565b6112bb565b34801561055457600080fd5b506105686105633660046128af565b6112d6565b6040516103669190612c53565b34801561058157600080fd5b5061038f610590366004612b10565b611394565b3480156105a157600080fd5b506103a26105b0366004612b10565b6113c3565b3480156105c157600080fd5b506103a260195481565b3480156105d757600080fd5b5061038f6105e6366004612aca565b611464565b3480156105f757600080fd5b506103a2601a5481565b34801561060d57600080fd5b506103f261061c366004612b10565b6114a1565b34801561062d57600080fd5b506103c5611518565b34801561064257600080fd5b506103a26106513660046128af565b611525565b34801561066257600080fd5b5061038f6115ac565b34801561067757600080fd5b506103a26115e2565b34801561068c57600080fd5b5061038f61069b366004612b10565b611634565b3480156106ac57600080fd5b50600a546001600160a01b03166103f2565b3480156106ca57600080fd5b506103f26106d9366004612b10565b611663565b3480156106ea57600080fd5b506103c56116ac565b3480156106ff57600080fd5b506103c56116b9565b34801561071457600080fd5b506103a260185481565b34801561072a57600080fd5b5061038f6107393660046129b6565b6116c8565b34801561074a57600080fd5b5061038f6116d3565b34801561075f57600080fd5b506103c5611704565b34801561077457600080fd5b506103f2610783366004612b10565b600b602052600090815260409020546001600160a01b031681565b3480156107aa57600080fd5b50601a546103a2565b3480156107bf57600080fd5b5061038f6107ce36600461293d565b611711565b3480156107df57600080fd5b506103f26107ee366004612b10565b611749565b3480156107ff57600080fd5b506103a260175481565b34801561081557600080fd5b5061038f610824366004612b10565b611773565b34801561083557600080fd5b506103c56117a2565b34801561084a57600080fd5b506103a260155481565b34801561086057600080fd5b506103c561086f366004612b10565b6117af565b34801561088057600080fd5b5061038f61088f366004612b10565b6119d2565b3480156108a057600080fd5b506103c5611a01565b3480156108b557600080fd5b506103a260145481565b3480156108cb57600080fd5b5061038f6108da366004612aca565b611a0e565b3480156108eb57600080fd5b5061035a6108fa3660046128d0565b6001600160a01b03918216600090815260056020908152604080832093909416825291909152205460ff1690565b34801561093457600080fd5b5061038f610943366004612a08565b611a4b565b34801561095457600080fd5b5061038f610963366004612aca565b611a8d565b34801561097457600080fd5b5061038f6109833660046128af565b611aca565b60006001600160e01b0319821663780e9d6360e01b14806109ad57506109ad82611b62565b92915050565b600a546001600160a01b031633146109e65760405162461bcd60e51b81526004016109dd90612cfc565b60405180910390fd5b80156109f4576001601a5550565b6000601a555b50565b606060008054610a0c90612e27565b80601f0160208091040260200160405190810160405280929190818152602001828054610a3890612e27565b8015610a855780601f10610a5a57610100808354040283529160200191610a85565b820191906000526020600020905b815481529060010190602001808311610a6857829003601f168201915b5050505050905090565b6000818152600260205260408120546001600160a01b0316610b085760405162461bcd60e51b815260206004820152602c60248201527f4552433732313a20617070726f76656420717565727920666f72206e6f6e657860448201526b34b9ba32b73a103a37b5b2b760a11b60648201526084016109dd565b506000908152600460205260409020546001600160a01b031690565b60108054610b3190612e27565b80601f0160208091040260200160405190810160405280929190818152602001828054610b5d90612e27565b8015610baa5780601f10610b7f57610100808354040283529160200191610baa565b820191906000526020600020905b815481529060010190602001808311610b8d57829003601f168201915b505050505081565b6000610bbd826114a1565b9050806001600160a01b0316836001600160a01b03161415610c2b5760405162461bcd60e51b815260206004820152602160248201527f4552433732313a20617070726f76616c20746f2063757272656e74206f776e656044820152603960f91b60648201526084016109dd565b336001600160a01b0382161480610c475750610c4781336108fa565b610cb95760405162461bcd60e51b815260206004820152603860248201527f4552433732313a20617070726f76652063616c6c6572206973206e6f74206f7760448201527f6e6572206e6f7220617070726f76656420666f7220616c6c000000000000000060648201526084016109dd565b610cc38383611bb2565b505050565b610cd23382611c20565b610cee5760405162461bcd60e51b81526004016109dd90612d31565b610cc3838383611d17565b6000610d0483611525565b8210610d665760405162461bcd60e51b815260206004820152602b60248201527f455243373231456e756d657261626c653a206f776e657220696e646578206f7560448201526a74206f6620626f756e647360a81b60648201526084016109dd565b506001600160a01b03919091166000908152600660209081526040808320938352929052205490565b6000805b601b54811015610dfe57826001600160a01b0316601b8281548110610dc857634e487b7160e01b600052603260045260246000fd5b6000918252602090912001546001600160a01b03161415610dec5750600192915050565b80610df681612e62565b915050610d93565b50600092915050565b600a546001600160a01b03163314610e315760405162461bcd60e51b81526004016109dd90612cfc565b6000739660c846fa92c99b420770d4ae1d1b63542033546064610e5547600a612dae565b610e5f9190612d9a565b604051600081818185875af1925050503d8060008114610e9b576040519150601f19603f3d011682016040523d82523d6000602084013e610ea0565b606091505b5050905080610eae57600080fd5b6000610ec2600a546001600160a01b031690565b6001600160a01b03164760405160006040518083038185875af1925050503d8060008114610f0c576040519150601f19603f3d011682016040523d82523d6000602084013e610f11565b606091505b5050905080610f1f57600080fd5b5050565b6000610f2e60085490565b9050601a54600014610f735760405162461bcd60e51b815260206004820152600e60248201526d135a5b9d081a5cc81c185d5cd95960921b60448201526064016109dd565b33610fc05760405162461bcd60e51b815260206004820152601b60248201527f526563697069656e742073686f756c642062652070726573656e74000000000060448201526064016109dd565b600082116110105760405162461bcd60e51b815260206004820152601b60248201527f4e65656420746f206d696e74206174206c656173742031204e4654000000000060448201526064016109dd565b60006015541161105b5760405162461bcd60e51b815260206004820152601660248201527513585e08139195081b1a5b5a5d08195e18d95959195960521b60448201526064016109dd565b600a546001600160a01b03163314611237576018546001141561113a5761108133610d8f565b6110cd5760405162461bcd60e51b815260206004820152601760248201527f55736572206973206e6f742077686974656c697374656400000000000000000060448201526064016109dd565b336000908152601c60205260409020546017546110ea8483612d82565b11156111385760405162461bcd60e51b815260206004820152601c60248201527f4d6178204e46542070657220616464726573732065786365656465640000000060448201526064016109dd565b505b346111875760405162461bcd60e51b815260206004820181905260248201527f526f79616c74792076616c75652073686f756c6420626520706f73697469766560448201526064016109dd565b816013546111959190612dae565b3410156111d95760405162461bcd60e51b8152602060048201526012602482015271496e73756666696369656e742066756e647360701b60448201526064016109dd565b6016548211156112375760405162461bcd60e51b8152602060048201526024808201527f4d6178206d696e7420616d6f756e74207065722073657373696f6e20657863656044820152631959195960e21b60648201526084016109dd565b60015b82811161129c576112548461124f8385612d82565b611ebe565b336000908152601c6020526040812080549161126f83612e62565b90915550506015805490600061128483612e10565b9190505550808061129490612e62565b91505061123a565b506103e86015546112ad9190612e7d565b610cc3576001601a55505050565b610cc383838360405180602001604052806000815250611711565b606060006112e383611525565b905060008167ffffffffffffffff81111561130e57634e487b7160e01b600052604160045260246000fd5b604051908082528060200260200182016040528015611337578160200160208202803683370190505b50905060005b8281101561138c5761134f8582610cf9565b82828151811061136f57634e487b7160e01b600052603260045260246000fd5b60209081029190910101528061138481612e62565b91505061133d565b509392505050565b600a546001600160a01b031633146113be5760405162461bcd60e51b81526004016109dd90612cfc565b601355565b60006113ce60085490565b82106114315760405162461bcd60e51b815260206004820152602c60248201527f455243373231456e756d657261626c653a20676c6f62616c20696e646578206f60448201526b7574206f6620626f756e647360a01b60648201526084016109dd565b6008828154811061145257634e487b7160e01b600052603260045260246000fd5b90600052602060002001549050919050565b600a546001600160a01b0316331461148e5760405162461bcd60e51b81526004016109dd90612cfc565b8051610f1f90600d906020840190612703565b6000818152600260205260408120546001600160a01b0316806109ad5760405162461bcd60e51b815260206004820152602960248201527f4552433732313a206f776e657220717565727920666f72206e6f6e657869737460448201526832b73a103a37b5b2b760b91b60648201526084016109dd565b600d8054610b3190612e27565b60006001600160a01b0382166115905760405162461bcd60e51b815260206004820152602a60248201527f4552433732313a2062616c616e636520717565727920666f7220746865207a65604482015269726f206164647265737360b01b60648201526084016109dd565b506001600160a01b031660009081526003602052604090205490565b600a546001600160a01b031633146115d65760405162461bcd60e51b81526004016109dd90612cfc565b6115e06000611ed8565b565b6000806115f7600a546001600160a01b031690565b6001600160a01b0316336001600160a01b03161461162c57336000908152601c60205260409020546017546109ad9190612dcd565b5060c8919050565b600a546001600160a01b0316331461165e5760405162461bcd60e51b81526004016109dd90612cfc565b601655565b6000818152600b60205260408120546001600160a01b031661169057600a546001600160a01b03166109ad565b506000908152600b60205260409020546001600160a01b031690565b600f8054610b3190612e27565b606060018054610a0c90612e27565b610f1f338383611f2a565b600a546001600160a01b031633146116fd5760405162461bcd60e51b81526004016109dd90612cfc565b6001601955565b60128054610b3190612e27565b61171b3383611c20565b6117375760405162461bcd60e51b81526004016109dd90612d31565b61174384848484611ff9565b50505050565b601b818154811061175957600080fd5b6000918252602090912001546001600160a01b0316905081565b600a546001600160a01b0316331461179d5760405162461bcd60e51b81526004016109dd90612cfc565b601855565b600e8054610b3190612e27565b6000818152600260205260409020546060906001600160a01b031661182e5760405162461bcd60e51b815260206004820152602f60248201527f4552433732314d657461646174613a2055524920717565727920666f72206e6f60448201526e3732bc34b9ba32b73a103a37b5b2b760891b60648201526084016109dd565b6000828152600c60205260408120805461184790612e27565b80601f016020809104026020016040519081016040528092919081815260200182805461187390612e27565b80156118c05780601f10611895576101008083540402835291602001916118c0565b820191906000526020600020905b8154815290600101906020018083116118a357829003601f168201915b5050505050905060006118d161202c565b90506019546000141561197257601080546118eb90612e27565b80601f016020809104026020016040519081016040528092919081815260200182805461191790612e27565b80156119645780601f1061193957610100808354040283529160200191611964565b820191906000526020600020905b81548152906001019060200180831161194757829003601f168201915b505050505092505050919050565b805161197f575092915050565b8151156119b4578082600e60405160200161199c93929190612b54565b60405160208183030381529060405292505050919050565b806119be8561203b565b600e60405160200161199c93929190612b54565b600a546001600160a01b031633146119fc5760405162461bcd60e51b81526004016109dd90612cfc565b601755565b60118054610b3190612e27565b600a546001600160a01b03163314611a385760405162461bcd60e51b81526004016109dd90612cfc565b8051610f1f90600e906020840190612703565b600a546001600160a01b03163314611a755760405162461bcd60e51b81526004016109dd90612cfc565b611a81601b6000612787565b610cc3601b83836127a5565b600a546001600160a01b03163314611ab75760405162461bcd60e51b81526004016109dd90612cfc565b8051610f1f906010906020840190612703565b600a546001600160a01b03163314611af45760405162461bcd60e51b81526004016109dd90612cfc565b6001600160a01b038116611b595760405162461bcd60e51b815260206004820152602660248201527f4f776e61626c653a206e6577206f776e657220697320746865207a65726f206160448201526564647265737360d01b60648201526084016109dd565b6109fa81611ed8565b60006001600160e01b031982166380ac58cd60e01b1480611b9357506001600160e01b03198216635b5e139f60e01b145b806109ad57506301ffc9a760e01b6001600160e01b03198316146109ad565b600081815260046020526040902080546001600160a01b0319166001600160a01b0384169081179091558190611be7826114a1565b6001600160a01b03167f8c5be1e5ebec7d5bd14f71427d1e84f3dd0314c0f7b2291e5b200ac8c7c3b92560405160405180910390a45050565b6000818152600260205260408120546001600160a01b0316611c995760405162461bcd60e51b815260206004820152602c60248201527f4552433732313a206f70657261746f7220717565727920666f72206e6f6e657860448201526b34b9ba32b73a103a37b5b2b760a11b60648201526084016109dd565b6000611ca4836114a1565b9050806001600160a01b0316846001600160a01b03161480611cdf5750836001600160a01b0316611cd484610a8f565b6001600160a01b0316145b80611d0f57506001600160a01b0380821660009081526005602090815260408083209388168352929052205460ff165b949350505050565b826001600160a01b0316611d2a826114a1565b6001600160a01b031614611d8e5760405162461bcd60e51b815260206004820152602560248201527f4552433732313a207472616e736665722066726f6d20696e636f72726563742060448201526437bbb732b960d91b60648201526084016109dd565b6001600160a01b038216611df05760405162461bcd60e51b8152602060048201526024808201527f4552433732313a207472616e7366657220746f20746865207a65726f206164646044820152637265737360e01b60648201526084016109dd565b611dfb838383612155565b611e06600082611bb2565b6001600160a01b0383166000908152600360205260408120805460019290611e2f908490612dcd565b90915550506001600160a01b0382166000908152600360205260408120805460019290611e5d908490612d82565b909155505060008181526002602052604080822080546001600160a01b0319166001600160a01b0386811691821790925591518493918716917fddf252ad1be2c89b69c2b068fc378daa952ba7f163c4a11628f55a4df523b3ef91a4505050565b610f1f828260405180602001604052806000815250612203565b600a80546001600160a01b038381166001600160a01b0319831681179093556040519116919082907f8be0079c531659141344cd1fd0a4f28419497f9722a3daafe3b4186f6b6457e090600090a35050565b816001600160a01b0316836001600160a01b03161415611f8c5760405162461bcd60e51b815260206004820152601960248201527f4552433732313a20617070726f766520746f2063616c6c65720000000000000060448201526064016109dd565b6001600160a01b03838116600081815260056020908152604080832094871680845294825291829020805460ff191686151590811790915591519182527f17307eab39ab6107e8899845ad3d59bd9653f200f220920489ca2b5937696c31910160405180910390a3505050565b612004848484611d17565b61201084848484612236565b6117435760405162461bcd60e51b81526004016109dd90612caa565b6060600d8054610a0c90612e27565b60608161205f5750506040805180820190915260018152600360fc1b602082015290565b8160005b8115612089578061207381612e62565b91506120829050600a83612d9a565b9150612063565b60008167ffffffffffffffff8111156120b257634e487b7160e01b600052604160045260246000fd5b6040519080825280601f01601f1916602001820160405280156120dc576020820181803683370190505b5090505b8415611d0f576120f1600183612dcd565b91506120fe600a86612e7d565b612109906030612d82565b60f81b81838151811061212c57634e487b7160e01b600052603260045260246000fd5b60200101906001600160f81b031916908160001a90535061214e600a86612d9a565b94506120e0565b612160838383612343565b6001600160a01b038316612173576121a9565b816001600160a01b0316836001600160a01b0316146121a9576000818152600b6020526040902080546001600160a01b03191690555b6001600160a01b0382166121bc57505050565b826001600160a01b0316826001600160a01b031614610cc3576000818152600b6020526040902080546001600160a01b0384166001600160a01b0319909116179055505050565b61220d83836123fb565b61221a6000848484612236565b610cc35760405162461bcd60e51b81526004016109dd90612caa565b60006001600160a01b0384163b1561233857604051630a85bd0160e11b81526001600160a01b0385169063150b7a029061227a903390899088908890600401612c16565b602060405180830381600087803b15801561229457600080fd5b505af19250505080156122c4575060408051601f3d908101601f191682019092526122c191810190612aae565b60015b61231e573d8080156122f2576040519150601f19603f3d011682016040523d82523d6000602084013e6122f7565b606091505b5080516123165760405162461bcd60e51b81526004016109dd90612caa565b805181602001fd5b6001600160e01b031916630a85bd0160e11b149050611d0f565b506001949350505050565b6001600160a01b03831661239e5761239981600880546000838152600960205260408120829055600182018355919091527ff3f7a9fe364faab93b216da50a3214154f22a0a2b415b23a84c8169e8b636ee30155565b6123c1565b816001600160a01b0316836001600160a01b0316146123c1576123c18382612549565b6001600160a01b0382166123d857610cc3816125e6565b826001600160a01b0316826001600160a01b031614610cc357610cc382826126bf565b6001600160a01b0382166124515760405162461bcd60e51b815260206004820181905260248201527f4552433732313a206d696e7420746f20746865207a65726f206164647265737360448201526064016109dd565b6000818152600260205260409020546001600160a01b0316156124b65760405162461bcd60e51b815260206004820152601c60248201527f4552433732313a20746f6b656e20616c7265616479206d696e7465640000000060448201526064016109dd565b6124c260008383612155565b6001600160a01b03821660009081526003602052604081208054600192906124eb908490612d82565b909155505060008181526002602052604080822080546001600160a01b0319166001600160a01b03861690811790915590518392907fddf252ad1be2c89b69c2b068fc378daa952ba7f163c4a11628f55a4df523b3ef908290a45050565b6000600161255684611525565b6125609190612dcd565b6000838152600760205260409020549091508082146125b3576001600160a01b03841660009081526006602090815260408083208584528252808320548484528184208190558352600790915290208190555b5060009182526007602090815260408084208490556001600160a01b039094168352600681528383209183525290812055565b6008546000906125f890600190612dcd565b6000838152600960205260408120546008805493945090928490811061262e57634e487b7160e01b600052603260045260246000fd5b90600052602060002001549050806008838154811061265d57634e487b7160e01b600052603260045260246000fd5b60009182526020808320909101929092558281526009909152604080822084905585825281205560088054806126a357634e487b7160e01b600052603160045260246000fd5b6001900381819060005260206000200160009055905550505050565b60006126ca83611525565b6001600160a01b039093166000908152600660209081526040808320868452825280832085905593825260079052919091209190915550565b82805461270f90612e27565b90600052602060002090601f0160209004810192826127315760008555612777565b82601f1061274a57805160ff1916838001178555612777565b82800160010185558215612777579182015b8281111561277757825182559160200191906001019061275c565b506127839291506127f8565b5090565b50805460008255906000526020600020908101906109fa91906127f8565b828054828255906000526020600020908101928215612777579160200282015b828111156127775781546001600160a01b0319166001600160a01b038435161782556020909201916001909101906127c5565b5b8082111561278357600081556001016127f9565b600067ffffffffffffffff8084111561282857612828612ebd565b604051601f8501601f19908116603f0116810190828211818310171561285057612850612ebd565b8160405280935085815286868601111561286957600080fd5b858560208301376000602087830101525050509392505050565b80356001600160a01b038116811461289a57600080fd5b919050565b8035801515811461289a57600080fd5b6000602082840312156128c0578081fd5b6128c982612883565b9392505050565b600080604083850312156128e2578081fd5b6128eb83612883565b91506128f960208401612883565b90509250929050565b600080600060608486031215612916578081fd5b61291f84612883565b925061292d60208501612883565b9150604084013590509250925092565b60008060008060808587031215612952578081fd5b61295b85612883565b935061296960208601612883565b925060408501359150606085013567ffffffffffffffff81111561298b578182fd5b8501601f8101871361299b578182fd5b6129aa8782356020840161280d565b91505092959194509250565b600080604083850312156129c8578182fd5b6129d183612883565b91506128f96020840161289f565b600080604083850312156129f1578182fd5b6129fa83612883565b946020939093013593505050565b60008060208385031215612a1a578182fd5b823567ffffffffffffffff80821115612a31578384fd5b818501915085601f830112612a44578384fd5b813581811115612a52578485fd5b8660208260051b8501011115612a66578485fd5b60209290920196919550909350505050565b600060208284031215612a89578081fd5b6128c98261289f565b600060208284031215612aa3578081fd5b81356128c981612ed3565b600060208284031215612abf578081fd5b81516128c981612ed3565b600060208284031215612adb578081fd5b813567ffffffffffffffff811115612af1578182fd5b8201601f81018413612b01578182fd5b611d0f8482356020840161280d565b600060208284031215612b21578081fd5b5035919050565b60008151808452612b40816020860160208601612de4565b601f01601f19169290920160200192915050565b600084516020612b678285838a01612de4565b855191840191612b7a8184848a01612de4565b85549201918390600181811c9080831680612b9657607f831692505b858310811415612bb457634e487b7160e01b88526022600452602488fd5b808015612bc85760018114612bd957612c05565b60ff19851688528388019550612c05565b60008b815260209020895b85811015612bfd5781548a820152908401908801612be4565b505083880195505b50939b9a5050505050505050505050565b6001600160a01b0385811682528416602082015260408101839052608060608201819052600090612c4990830184612b28565b9695505050505050565b6020808252825182820181905260009190848201906040850190845b81811015612c8b57835183529284019291840191600101612c6f565b50909695505050505050565b6020815260006128c96020830184612b28565b60208082526032908201527f4552433732313a207472616e7366657220746f206e6f6e20455243373231526560408201527131b2b4bb32b91034b6b83632b6b2b73a32b960711b606082015260800190565b6020808252818101527f4f776e61626c653a2063616c6c6572206973206e6f7420746865206f776e6572604082015260600190565b60208082526031908201527f4552433732313a207472616e736665722063616c6c6572206973206e6f74206f6040820152701ddb995c881b9bdc88185c1c1c9bdd9959607a1b606082015260800190565b60008219821115612d9557612d95612e91565b500190565b600082612da957612da9612ea7565b500490565b6000816000190483118215151615612dc857612dc8612e91565b500290565b600082821015612ddf57612ddf612e91565b500390565b60005b83811015612dff578181015183820152602001612de7565b838111156117435750506000910152565b600081612e1f57612e1f612e91565b506000190190565b600181811c90821680612e3b57607f821691505b60208210811415612e5c57634e487b7160e01b600052602260045260246000fd5b50919050565b6000600019821415612e7657612e76612e91565b5060010190565b600082612e8c57612e8c612ea7565b500690565b634e487b7160e01b600052601160045260246000fd5b634e487b7160e01b600052601260045260246000fd5b634e487b7160e01b600052604160045260246000fd5b6001600160e01b0319811681146109fa57600080fdfea2646970667358221220f5f46f3a3f28da9378ef16e19cd1956de834fddbf2a7b0051c8a063fd856e34464736f6c63430008040033",
  "linkReferences": {},
  "deployedLinkReferences": {}
}